:100000000C9435000C945D000C945D000C94AF02D0
:100010000C9439020C9404020C945D000C945D0065
:100020000C945D000C945D000C945D000C945D00DC
:100030000C945D000C945D000C945D000C945D00CC
:100040000C945D000C945D000C94D2010C94AC01F6
:100050000C945D000C945D000C945D000C945D00AC
:100060000C945D000C945D004A0311241FBECFEF79
:10007000D8E0DEBFCDBF11E0A0E0B1E0E0E8F9E0FC
:1000800002C005900D92A832B107D9F721E0A8E28D
:10009000B1E001C01D92A33DB207E1F710E0C5E356
:1000A000D0E004C02197FE010E94B804C433D107F8
:1000B000C9F70E9477030C94BE040C940000AF9221
:1000C000BF92CF92DF92EF92FF920F931F93CF9345
:1000D000DF936C017B018B01040F151FEB015E01A7
:1000E000AE18BF08C017D10759F06991D601ED913C
:1000F000FC910190F081E02DC6010995892B79F7DB
:10010000C501DF91CF911F910F91FF90EF90DF908C
:10011000CF90BF90AF900895FC01538D448D252F53
:1001200030E0842F90E0821B930B541710F0CF9691
:10013000089501970895FC01918D828D981761F0C3
:10014000A28DAE0FBF2FB11D5D968C91928D9F5FDA
:100150009F73928F90E008958FEF9FEF0895FC01B9
:10016000918D828D981731F0828DE80FF11D858D6C
:1001700090E008958FEF9FEF0895FC01918D228DFF
:10018000892F90E0805C9F4F821B91098F73992784
:100190000895FC01A48DA80FB92FB11DA35ABF4F1C
:1001A0002C91848D90E001968F739927848FA68976
:1001B000B7892C93A089B1898C91837080648C93CA
:1001C000938D848D981306C00288F389E02D808179
:1001D0008F7D80830895EF92FF920F931F93CF93AB
:1001E000DF93EC0181E0888F9B8D8C8D98131AC072
:1001F000E889F989808185FF15C09FB7F894EE8959
:10020000FF896083E889F9898081837080648083B5
:100210009FBF81E090E0DF91CF911F910F91FF9000
:10022000EF900895F62E0B8D10E00F5F1F4F0F73A8
:100230001127E02E8C8D8E110CC00FB607FCFACF63
:10024000E889F989808185FFF5CFCE010E94C90038
:10025000F1CFEB8DEC0FFD2FF11DE35AFF4FF08234
:100260009FB7F8940B8FEA89FB8980818062CFCF9A
:10027000CF93DF93EC01888D8823B9F0AA89BB89DD
:10028000E889F9898C9185FD03C0808186FD0DC0C8
:100290000FB607FCF7CF8C9185FFF2CF808185FFE9
:1002A000EDCFCE010E94C900E9CFDF91CF91089533
:1002B00030E020E042EB57E04093B2005093B100B1
:1002C000B89BFECFB89A1092B100A8952F5F3F4F10
:1002D0008217930789F7089510922A0181E080938D
:1002E0002B0180916B00806180936B0080912A01CB
:1002F000811102C0A895FACF0895EF92FF920F9353
:100300001F93CF93DF93E82E092FF62E172FC8E601
:10031000D0E088818D7F888381E680932C010E94C4
:100320006C01E0922C010E946C01F0922C010E9461
:100330006C01A89500932C010E946C0110932C0174
:100340000E946C01888182608883DF91CF911F9128
:100350000F91FF90EF9008951F920F920FB60F929A
:1003600011242F933F934F935F936F937F938F93BA
:100370009F93AF93BF93EF93FF9386E391E00E9427
:10038000C900FF91EF91BF91AF919F918F917F91A4
:100390006F915F914F913F912F910F900FBE0F90F2
:1003A0001F9018951F920F920FB60F9211242F9342
:1003B0008F939F93EF93FF93E0914601F091470154
:1003C0008081E0914C01F0914D0182FD1BC0908134
:1003D00080914F018F5F8F7320915001821741F000
:1003E000E0914F01F0E0EA5CFE4F958F80934F0162
:1003F000FF91EF919F918F912F910F900FBE0F90D2
:100400001F9018958081F4CF1F920F920FB60F9214
:1004100011242F933F938F939F934D9921C08091E7
:10042000350181111DC0209133013091340180913B
:1004300031019091320128233923232B71F020912F
:1004400033013091340180959095822393239093CA
:100450003401809333011092300181E080933501A3
:100460009F918F913F912F910F900FBE0F901F90F2
:1004700018951F920F920FB60F9211242F933F934E
:100480004F935F936F937F938F939F93AF93BF939C
:10049000EF93FF93359952C08FE79BEB0197F1F7EC
:1004A00000C00000A895EFE7FBEB3197F1F700C023
:1004B0000000A895359942C086E190E0EFE3FCE9A1
:1004C0003197F1F700C00000A8950197B9F7359B67
:1004D0001FC08CEF93E00E94A204682F6B7F8CEF0B
:1004E00093E00E94AA048CEF93E00E94A204682F7C
:1004F0006F7B8CEF93E00E94AA0488E199E00FB62D
:10050000F894A895809360000FBE90936000FFCF91
:10051000299A289A86E190E0EFE3FCE93197F1F718
:1005200000C00000A8950197B9F73599DCCF789401
:1005300087E480932C010E946C01D5CFFF91EF914D
:10054000BF91AF919F918F917F916F915F914F91EB
:100550003F912F910F900FBE0F901F9018951F92F3
:100560000F920FB60F9211242F933F934F938F93B7
:100570009F931C9983C080916B008F7E80936B004A
:1005800080912B01813009F047C016BC17BC82E076
:1005900085BD80912E0190912F0197FD0196959533
:1005A000879587BDA99BFECF8FEF85BB2C9A87B51A
:1005B00090912E01890F87BDA99BFECF8FEF85BB40
:1005C000249A87B590912E01890F87BDA99BFECFF4
:1005D0008FEF85BB27E030E04FEF80912C01082E94
:1005E000000C990B022E02C0959587950A94E2F7AC
:1005F00080FF4EC02C9A87B590912E01890F87BD40
:10060000A99BFECF45BB2150310938F724982C987F
:1006100081E080932A0115BC80912B01823071F515
:1006200016BC17BC85BD80912E0190912F0197FDBE
:1006300001969595879587BDA99BFECF8FEF85BBCA
:1006400088E090E04FEF27B530912E01230F27BDB2
:10065000A99BFECF45BB20912901220F330B20938C
:1006600029011C9B05C020912901216020932901AB
:10067000019749F715BC81E0809328019F918F91E4
:100680004F913F912F910F900FBE0F901F90189593
:100690002C98B1CFE6E3F1E01382128288EE93E06A
:1006A000A0E0B0E084839583A683B78384E091E0E3
:1006B0009183808385EC90E09587848784EC90E03B
:1006C0009787868780EC90E0918B808B81EC90E01F
:1006D000938B828B82EC90E0958B848B86EC90E000
:1006E000978B868B118E128E138E148E0895A8957B
:1006F00084B7877F84BF80916000886180936000A9
:100700001092600080917C00806480937C0085B7AB
:100710008F7E85BF14B817B81AB88FEF85B988B91E
:100720008BB98FEF93E00E94A204C82F80EF8C0F4B
:10073000803E40F48EEF93E00E94A204C81302C0F2
:10074000C093660086EF93E00E94A204C82F8F3CFE
:100750008CF082337CF487EF93E00E94A204C813EC
:1007600009C08C2FCC0F990B88539F4F90932F016A
:1007700080932E0180916800826080936800809150
:100780006C00806280936C0080916800816080932F
:10079000680080916B00806180936B002C98D3E09F
:1007A000D4B985B18C7F85B978941092C10010922C
:1007B000C50080E18093C40012E01093C00088E17E
:1007C0008093C100C6E0C093C2008CEF93E00E940A
:1007D000A204873F09F486C050F48D3B09F47FC022
:1007E0008D3D09F482C08D3A51F484E075C08E3F8E
:1007F00009F471C008F07EC08D3F09F478C06FEF36
:100800008CEF93E00E94AA0480912D01873079F447
:10081000E2E1F1E08191882351F09091C00095FFD1
:10082000FCCF8093C60081E0EA3DF80799F78FE19D
:100830009EE40197F1F700C0000078948091680071
:1008400084608093680080916D00806280936D0069
:100850008FEF9FEF9093340180933301FF24F39443
:1008600001E010E08091330190913401892B09F46B
:100870004AC0F092350184E190E00E945801F09264
:1008800030011093320100933101809130018823AF
:1008900049F3C0913101D0913201C130D10511F439
:1008A00010923501609133017091340180913301D0
:1008B00090913401609570956C277D278C239D2342
:1008C0000E947D0185E090E00E945801D7FF14C08E
:1008D00010923001DACF81E080932D0190CF1093F8
:1008E0002D018DCFD0932D018ACF85E0F5CFC09318
:1008F0002D0185CF87E0F0CFCC0FDD1FD0933201E3
:10090000C0933101C2CF6FEF7FEF90E080E00E9493
:100910007D0188EC90E00E9458018CEF93E00E94EA
:10092000A204682F6F7B8CEF93E00E94AA0488E1F9
:1009300099E00FB6F894A895809360000FBE90934D
:100940006000FFCFF999FECF92BD81BDF89A99273B
:1009500080B50895262FF999FECF1FBA92BD81BDAB
:1009600020BD0FB6F894FA9AF99A0FBE0196089531
:10097000EE0FFF1F0590F491E02D0994F894FFCF3E
:1009800000000000EB005F008C003801BD009B0000
:10099000AF0050726F6772616D207265737461721F
:0809A0007465642E0D0A0000CD
:00000001FF
