:100000000C9434000C9451000C9451000C94240175
:100010000C94A1000C9451000C9451000C945100CC
:100020000C9451000C9451000C9451000C9451000C
:100030000C9451000C9451000C9451000C945100FC
:100040000C9451000C9451000C9465000C945100D8
:100050000C9451000C9451000C9451000C945100DC
:100060000C9451000C94510011241FBECFEFD8E026
:10007000DEBFCDBF11E0A0E0B1E0EEE8F5E002C0E8
:1000800005900D92A831B107D9F721E0A8E1B1E0C0
:1000900001C01D92A132B207E1F70E94BF010C948A
:1000A000C5020C940000AC0148535F4FFC01219144
:1000B000CF01222349F03091C00035FFFCCF2093BF
:1000C000C6008417950791F708951F920F920FB6F7
:1000D0000F9211242F933F934F935F936F937F93CE
:1000E0008F939F93AF93BF93CF93DF93EF93FF9340
:1000F0008091C60085E191E00E945300D0E0C0E00D
:1001000080912001082E000C990B8C179D0734F06C
:1001100080E091E00E9453002196F2CFFF91EF9191
:10012000DF91CF91BF91AF919F918F917F916F910F
:100130005F914F913F912F910F900FBE0F901F90A5
:1001400018951F920F920FB60F9211242F933F9381
:100150004F935F936F937F938F939F93AF93BF93CF
:10016000EF93FF9335995FC08FE79BEB0197F1F712
:1001700000C00000A895EFE7FBEB3197F1F700C056
:100180000000A89535994FC086E190E0EFE3FCE9C7
:100190003197F1F700C00000A8950197B9F7359B9A
:1001A0001FC08CEF93E00E94AF02682F6B7F8CEF33
:1001B00093E00E94B7028CEF93E00E94AF02682F99
:1001C0006F7B8CEF93E00E94B70288E199E00FB655
:1001D000F894A895809360000FBE90936000FFCFC5
:1001E000299A289A86E190E0EFE3FCE93197F1F74C
:1001F00000C00000A8950197B9F73599DCCF789435
:1002000087E480931C0110921B0181E080931A0106
:1002100080916B00806180936B0080911B01811144
:10022000CACFA895FACFFF91EF91BF91AF919F915F
:100230008F917F916F915F914F913F912F910F908F
:100240000FBE0F901F9018951F920F920FB60F922E
:1002500011242F933F934F938F939F931C9983C0A7
:1002600080916B008F7E80936B0080911A018130AA
:1002700009F047C016BC17BC82E085BD80911E0105
:1002800090911F0197FD01969595879587BDA99B34
:10029000FECF8FEF85BB2C9A87B590911E01890FF9
:1002A00087BDA99BFECF8FEF85BB249A87B5909120
:1002B0001E01890F87BDA99BFECF8FEF85BB27E06D
:1002C00030E04FEF80911C01082E000C990B022E9C
:1002D00002C0959587950A94E2F780FF4EC02C9A4C
:1002E00087B590911E01890F87BDA99BFECF45BBA5
:1002F0002150310938F724982C9881E080931B0114
:1003000015BC80911A01823071F516BC17BC85BDF1
:1003100080911E0190911F0197FD019695958795FB
:1003200087BDA99BFECF8FEF85BB88E090E04FEFA4
:1003300027B530911E01230F27BDA99BFECF45BBDA
:1003400020911901220F330B209319011C9B05C02A
:1003500020911901216020931901019749F715BCDB
:1003600081E0809318019F918F914F913F912F9140
:100370000F900FBE0F901F9018952C98B1CFA89595
:1003800084B7877F84BF809160008861809360001C
:100390001092600080917C00806480937C0085B71F
:1003A0008F7E85BF14B817B81AB88FEF85B988B992
:1003B0008BB98FEF93E00E94AF02C82F80EF8C0FB4
:1003C000803E40F48EEF93E00E94AF02C81302C05B
:1003D000C093660086EF93E00E94AF02C82F8F3C67
:1003E0008CF082337CF487EF93E00E94AF02C81355
:1003F00009C08C2FCC0F990B88539F4F90931F01EE
:1004000080931E01809168008260809368008091D3
:100410006C00806280936C008091680081608093A2
:10042000680080916B00806180936B002C98D3E012
:10043000D4B985B18C7F85B978941092C10010929F
:10044000C50080E18093C40012E01093C00088E1F1
:100450008093C100C6E0C093C2008CEF93E00E947D
:10046000AF02873F39F140F48D3B09F18D3D29F111
:100470008D3A39F484E018C08E3FA9F018F58D3F0D
:10048000F1F06FEF8CEF93E00E94B70280911D01B5
:100490008730D1F483E091E00E94530085E191E040
:1004A0000E94530013C081E080931D01EACF109396
:1004B0001D01E7CFD0931D01E4CF85E0F5CFC093B8
:1004C0001D01DFCF87E0F0CF823041F78091C1007E
:1004D00080688093C100789485E191E00E94530088
:1004E00081E29091C00095FFFCCF8093C6002FE77A
:1004F0003EEC91E0215030409040E1F700C0000018
:100500008F5F909120019F5F90932001A8958F3776
:1005100041F78091C1008F778093C1008091C00026
:1005200087FD02C0A895FACF8091C60085E191E0D1
:100530000E9453008CEF93E00E94AF02682F6F7B04
:100540008CEF93E00E94B70288E199E00FB6F8942F
:10055000A895809360000FBE90936000FFCFF9993B
:10056000FECF92BD81BDF89A992780B50895262FB8
:10057000F999FECF1FBA92BD81BD20BD0FB6F89488
:0E058000FA9AF99A0FBE01960895F894FFCFEB
:10058E0020200050726F6772616D20726573746106
:08059E00727465642E0D0A0061
:00000001FF
