:100000000C9434000C9451000C9451000C94C501D4
:100010000C944F010C9451000C9451000C9451001D
:100020000C9451000C9451000C9451000C94AC00B1
:100030000C9451000C9451000C9451000C945100FC
:100040000C9451000C9451000C9480000C945100BD
:100050000C9451000C9451000C9451000C945100DC
:100060000C9451000C94510011241FBECFEFD8E026
:10007000DEBFCDBF11E0A0E0B1E0E0E0F7E002C0FC
:1000800005900D92A235B107D9F721E0A2E5B1E0C4
:1000900001C01D92AB35B207E1F70E9461020C94DA
:1000A0007E030C9400009091C00095FFFCCF8093DC
:1000B000C60008950F931F93CF93DF93EC018C013B
:1000C00008531F4F8991882329F00E945300C017BD
:1000D000D107C1F7DF91CF911F910F910895109231
:1000E000540181E08093550180916B008061809381
:1000F0006B0080915401811102C0A895FACF089538
:100100001F920F920FB60F9211242F933F934F938C
:100110005F936F937F938F939F93AF93BF93EF936F
:10012000FF938091C6008A3199F00E945300FF919D
:10013000EF91BF91AF919F918F917F916F915F915F
:100140004F913F912F910F900FBE0F901F901895D8
:1001500081E080935A01EBCF1F920F920FB60F925E
:1001600011248F929F92AF92BF92CF92DF92EF9223
:10017000FF922F933F934F935F936F937F938F9350
:100180009F93AF93BF93EF93FF93109285001092CC
:10019000840078948091000190910101A091020166
:1001A000B09103010097A140B105A4F5C0900001F2
:1001B000D0900101E0900201F090030180900001D5
:1001C00090900101A0900201B0900301809168001D
:1001D0008D7F8093680081E6809359010E946F00B3
:1001E000809259010E946F00C09259010E946F00D5
:1001F000A895892C9924809259010E946F00CD2CDA
:10020000DD24C09259010E946F00809168008260D5
:10021000809368008091000190910101A0910201FA
:10022000B0910301880F991FAA1FBB1F8093000183
:1002300090930101A0930201B0930301809100010A
:1002400090910101A0910201B09103010097A1409A
:10025000B10561F481E090E0A0E0B0E0809300019E
:1002600090930101A0930201B0930301FF91EF91DC
:10027000BF91AF919F918F917F916F915F914F91BE
:100280003F912F91FF90EF90DF90CF90BF90AF9074
:100290009F908F900F900FBE0F901F9018951F92F8
:1002A0000F920FB60F9211242F933F934F935F93AA
:1002B0006F937F938F939F93AF93BF93EF93FF932E
:1002C000359952C08FE79BEB0197F1F700C0000012
:1002D000A895EFE7FBEB3197F1F700C00000A89578
:1002E000359942C086E190E0EFE3FCE93197F1F700
:1002F00000C00000A8950197B9F7359B1FC08CEF8F
:1003000093E00E946803682F6B7F8CEF93E00E945C
:1003100070038CEF93E00E946803682F6F7B8CEF73
:1003200093E00E94700388E199E00FB6F894A895D5
:10033000809360000FBE90936000FFCF299A289AA7
:1003400086E190E0EFE3FCE93197F1F700C00000AF
:10035000A8950197B9F73599DCCF789487E4809315
:1003600059010E946F00D5CFFF91EF91BF91AF91DE
:100370009F918F917F916F915F914F913F912F91BD
:100380000F900FBE0F901F9018951F920F920FB6EF
:100390000F9211242F933F934F938F939F937894B1
:1003A0001C9983C080916B008F7E80936B0080913D
:1003B0005501813009F047C016BC17BC82E085BDED
:1003C000809157019091580197FD019695958795D9
:1003D00087BDA99BFECF8FEF85BB2C9A87B59091E7
:1003E0005701890F87BDA99BFECF8FEF85BB249A4C
:1003F00087B590915701890F87BDA99BFECF8FEFDD
:1004000085BB27E030E04FEF80915901082E000CAA
:10041000990B022E02C0959587950A94E2F780FF0A
:100420004EC02C9A87B590915701890F87BDA99B23
:10043000FECF45BB2150310938F724982C9881E034
:100440008093540115BC80915501823071F516BC22
:1004500017BC85BD809157019091580197FD019679
:100460009595879587BDA99BFECF8FEF85BB88E0CB
:1004700090E04FEF27B530915701230F27BDA99B7F
:10048000FECF45BB20915301220F330B2093530124
:100490001C9B05C0209153012160209353010197BB
:1004A00049F715BC81E0809352019F918F914F9144
:1004B0003F912F910F900FBE0F901F9018952C9881
:1004C000B1CFA89584B7877F84BF80916000886191
:1004D000809360001092600080917C008064809323
:1004E0007C0085B78F7E85BF14B817B81AB88FEF18
:1004F00085B988B98BB98FEF93E00E946803C82F44
:1005000080EF8C0F803E40F48EEF93E00E946803F2
:10051000C81302C0C093660086EF93E00E94680390
:10052000C82F8F3C8CF082337CF487EF93E00E94DD
:100530006803C81309C08C2FCC0F990B88539F4FA9
:100540009093580180935701809168008260809356
:10055000680080916C00806280936C0080916800DC
:1005600081608093680080916B00806180936B0054
:100570002C98D3E0D4B985B18C7F85B9789410924A
:10058000C1001092C50080E18093C40012E0109376
:10059000C00088E18093C100C6E0C093C2008CEF28
:1005A00093E00E946803873F39F140F48D3B09F1E5
:1005B0008D3D29F18D3A39F484E018C08E3FA9F0C1
:1005C00018F58D3FF1F06FEF8CEF93E00E94700310
:1005D000809156018730D1F484E091E00E945A0066
:1005E00089E191E00E945A0013C081E08093560196
:1005F000EACF10935601E7CFD0935601E4CF85E0C0
:10060000F5CFC0935601DFCF87E0F0CF823041F7BE
:1006100090E080E020E230E04091C00047FD28C03B
:100620000196A89581344FE1940724F021503109B7
:1006300090E080E02115310579F78FE30E945300A7
:10064000E7CF8091C6008CEF93E00E946803682F8B
:100650006F7B8CEF93E00E94700388E199E00FB606
:10066000F894A895809360000FBE90936000FFCF30
:1006700086E191E00E945A008091C6000E945300DA
:1006800010928100109285001092840084ED90E316
:10069000909389008093880080916F00826080939E
:1006A0006F0083E0809381008091C1008068809317
:1006B000C10080915A018823E1F38BE391E00E940D
:1006C0005A00F8948091C00087FDBBCFA895FACF5F
:1006D000F999FECF92BD81BDF89A992780B508950A
:1006E000262FF999FECF1FBA92BD81BD20BD0FB64E
:1006F000F894FA9AF99A0FBE01960895F894FFCFEC
:100700000100000050726F6772616D207265737432
:1007100061727465642E0D0A0053656E642066690B
:100720006C653A204374726C2D5A207768656E2090
:1007300066696E69736865640D0A000D0A446F6E20
:10074000653A20414B20746F207265706561740DAD
:020750000A009D
:00000001FF
