:100000000C9435000C945D000C945D000C949504E8
:100010000C941F040C9423030C945D000C945D005D
:100020000C945D000C945D000C945D000C945D00DC
:100030000C945D000C945D000C945D000C945D00CC
:100040000C945D000C945D000C94F1020C94CB02B6
:100050000C945D000C945D000C945D000C945D00AC
:100060000C945D000C945D00300511241FBECFEF91
:10007000D8E0DEBFCDBF11E0A0E0B1E0EAEBFEE0EA
:1000800002C005900D92A837B107D9F722E0A8E782
:10009000B1E001C01D92A932B207E1F710E0C5E35B
:1000A000D0E004C02197FE010E944607C433D10767
:1000B000C9F70E945D050C945B070C940000AF9299
:1000C000BF92CF92DF92EF92FF920F931F93CF9345
:1000D000DF936C017B018B01040F151FEB015E01A7
:1000E000AE18BF08C017D10759F06991D601ED913C
:1000F000FC910190F081E02DC6010995892B79F7DB
:10010000C501DF91CF911F910F91FF90EF90DF908C
:10011000CF90BF90AF900895FC01538D448D252F53
:1001200030E0842F90E0821B930B541710F0CF9691
:10013000089501970895FC01918D828D981761F0C3
:10014000A28DAE0FBF2FB11D5D968C91928D9F5FDA
:100150009F73928F90E008958FEF9FEF0895FC01B9
:10016000918D828D981731F0828DE80FF11D858D6C
:1001700090E008958FEF9FEF0895FC01918D228DFF
:10018000892F90E0805C9F4F821B91098F73992784
:100190000895FC01A48DA80FB92FB11DA35ABF4F1C
:1001A0002C91848D90E001968F739927848FA68976
:1001B000B7892C93A089B1898C91837080648C93CA
:1001C000938D848D981306C00288F389E02D808179
:1001D0008F7D80830895EF92FF920F931F93CF93AB
:1001E000DF93EC0181E0888F9B8D8C8D98131AC072
:1001F000E889F989808185FF15C09FB7F894EE8959
:10020000FF896083E889F9898081837080648083B5
:100210009FBF81E090E0DF91CF911F910F91FF9000
:10022000EF900895F62E0B8D10E00F5F1F4F0F73A8
:100230001127E02E8C8D8E110CC00FB607FCFACF63
:10024000E889F989808185FFF5CFCE010E94C90038
:10025000F1CFEB8DEC0FFD2FF11DE35AFF4FF08234
:100260009FB7F8940B8FEA89FB8980818062CFCF9A
:10027000CF93DF93EC01888D8823B9F0AA89BB89DD
:10028000E889F9898C9185FD03C0808186FD0DC0C8
:100290000FB607FCF7CF8C9185FFF2CF808185FFE9
:1002A000EDCFCE010E94C900E9CFDF91CF91089533
:1002B0009091C00095FFFCCF8093C60008958F9267
:1002C0009F92AF92BF92CF92DF92EF92FF920F93E5
:1002D0001F93CF93DF93CDB7DEB72C970FB6F8946B
:1002E000DEBF0FBECDBF9E012F5F3F4F7901690179
:1002F00010E000E02AE0822E912CA12CB12C0F5F9F
:100300001F4FA50194010E94FA06605DF6016193FA
:100310006F01B901CA0116161706180619067CF3F3
:100320000E0D1F1DF8011082F80182918F010E94AD
:1003300058010E151F05C1F780E22C960FB6F894F0
:10034000DEBF0FBECDBFDF91CF911F910F91FF9008
:10035000EF90DF90CF90BF90AF909F908F900C94D4
:1003600058010F931F93CF93DF93EC018C01085337
:100370001F4F8991882329F00E945801C017D10787
:10038000C1F7DF91CF911F910F91089530E020E0E8
:1003900042EB57E04093B2005093B100B89BFECFC0
:1003A000B89A1092B100A8952F5F3F4F821793071C
:1003B00089F708951092780181E080937C01809103
:1003C0006B00806180936B0080917801811102C085
:1003D000A895FACF08958F929F92AF92BF92CF9235
:1003E000DF92EF92FF920F931F93CF93DF9300D092
:1003F00000D0CDB7DEB7809168008460809368003C
:1004000080916D00846280936D001092850110923E
:100410008601109287011092880110928901109232
:100420008A0110928B0180E3809384018FB78093BF
:1004300083017894809168008B7F8093680081E4C9
:10044000809382010E94DA0194E8E92E91E0F92E6E
:100450002CE8C22E21E0D22E8701A895F8018191C7
:100460008F01809382010E94DA01C016D106A9F79C
:1004700080918101809382010E94DA018091830141
:100480008FBF8091680084608093680080918001B4
:10049000811102C0A895FACF1092800180917F014E
:1004A0008823A1F310927F0181E0809381018FB7AF
:1004B000809383017894809168008B7F809368009B
:1004C00081E4809382010E94DA01A895F70181916D
:1004D0007F01809382010E94DA010E151F05A9F7A2
:1004E00080918101809382010E94DA0180918301D1
:1004F0008FBF8091680084608093680010928101B2
:1005000085E4809382010E94DA01DE0111969E014A
:100510002B5F3F4FFD0192E0A89510927E01109253
:100520007D0190937C0180916B00806180936B00D2
:1005300080917D01811102C0A895FACF80917E0142
:1005400081932E173F0741F7A895BA2CA92C982C18
:1005500088248D91882AAE17BF07B1F780916D006E
:100560008B7D80936D0080916D008F7780936D00FF
:10057000C501B4010F900F900F900F90DF91CF91B4
:100580001F910F91FF90EF90DF90CF90BF90AF90B1
:100590009F908F9008951F920F920FB60F92112483
:1005A0002F933F934F935F936F937F938F939F937B
:1005B000AF93BF93EF93FF938CE891E00E94C90043
:1005C000FF91EF91BF91AF919F918F917F916F912B
:1005D0005F914F913F912F910F900FBE0F901F9001
:1005E00018951F920F920FB60F9211242F938F938D
:1005F0009F93EF93FF93E0919C01F0919D01808187
:10060000E091A201F091A30182FD1BC09081809135
:10061000A5018F5F8F732091A601821741F0E091B1
:10062000A501F0E0E457FE4F958F8093A501FF915F
:10063000EF919F918F912F910F900FBE0F901F9070
:1006400018958081F4CF1F920F920FB60F9211244C
:10065000FF920F931F932F933F934F935F936F934B
:100660007F938F939F93AF93BF93CF93DF93EF933A
:10067000FF934A9B04C04D9B02C04F99C8C04D993F
:1006800002C04F9B42C04F9B46C010E30DE281E485
:10069000F82E4A9979C0809184018D3209F46DC099
:1006A000893309F06DC080918501811166C0009386
:1006B00084018FB7809383017894809168008B7F49
:1006C00080936800F09282010E94DA01C4E8D1E0D0
:1006D000A8958991809382010E94DA0181E0CC384B
:1006E000D807B1F780918101809382010E94DA01DD
:1006F000809183018FBF809168008460809368003F
:100700008AE090E00E94C601C4CF4D9B02C04F9981
:100710007EC0A895FACF81E08093800180937F010D
:100720008FB7809383017894809168008B7F80934A
:10073000680081E4809382010E94DA01C4E8D1E07C
:100740000CE811E0A8958991809382010E94DA015A
:100750000C171D07B9F780918101809382010E94D7
:10076000DA01809183018FBF80916800846080935B
:1007700068004F994CC0A895FCCF1093840199CF85
:100780008F5F8093840195CF80916D008068809306
:100790006D004D9937C00BE811E0E8018A9189831B
:1007A00081E0C438D80709F048C080E38093840111
:1007B0008FB7809383017894809168008B7F8093BA
:1007C000680081E4809382010E94DA01095F1F4F73
:1007D000A8958991809382010E94DA010C171D0768
:1007E000B9F780918101809382010E94DA018091A2
:1007F00083018FBF8091680084608093680081E0EE
:10080000809380018AE090E00E94C601DA9AFF910D
:10081000EF91DF91CF91BF91AF919F918F917F9198
:100820006F915F914F913F912F911F910F91FF9089
:100830000F900FBE0F901F9018958E01AECF1F9294
:100840000F920FB60F9211242F933F934F935F9304
:100850006F937F938F939F93AF93BF93EF93FF9388
:10086000359952C08FE79BEB0197F1F700C000006C
:10087000A895EFE7FBEB3197F1F700C00000A895D2
:10088000359942C086E190E0EFE3FCE93197F1F75A
:1008900000C00000A8950197B9F7359B1FC08CEFE9
:1008A00093E00E94D406682F6B7F8CEF93E00E9448
:1008B000DC068CEF93E00E94D406682F6F7B8CEFF0
:1008C00093E00E94DC0688E199E00FB6F894A895C1
:1008D000809360000FBE90936000FFCF299A289A02
:1008E00086E190E0EFE3FCE93197F1F700C000000A
:1008F000A8950197B9F73599DCCF789487E4809370
:1009000082010E94DA01D5CFFF91EF91BF91AF91A3
:100910009F918F917F916F915F914F913F912F9117
:100920000F900FBE0F901F9018951F920F920FB649
:100930000F9211242F933F934F938F939F931C9962
:1009400083C080916B008F7E80936B0080917C01CF
:10095000813009F047C016BC17BC82E085BD80918C
:100960007A0190917B0197FD01969595879587BDBA
:10097000A99BFECF8FEF85BB2C9A87B590917A010A
:10098000890F87BDA99BFECF8FEF85BB249A87B5C2
:1009900090917A01890F87BDA99BFECF8FEF85BB10
:1009A00027E030E04FEF80918201082E000C990B78
:1009B000022E02C0959587950A94E2F780FF4EC0FB
:1009C0002C9A87B590917A01890F87BDA99BFECF9C
:1009D00045BB2150310938F724982C9881E0809349
:1009E000780115BC80917C01823071F516BC17BC72
:1009F00085BD80917A0190917B0197FD0196959537
:100A0000879587BDA99BFECF8FEF85BB88E090E0DF
:100A10004FEF27B530917A01230F27BDA99BFECF59
:100A200045BB20917E01220F330B20937E011C9B3E
:100A300005C020917E01216020937E01019749F736
:100A400015BC81E080937D019F918F914F913F91E3
:100A50002F910F900FBE0F901F9018952C98B1CF2B
:100A6000ECE8F1E01382128288EE93E0A0E0B0E0BF
:100A700084839583A683B78384E091E09183808308
:100A800085EC90E09587848784EC90E09787868753
:100A900080EC90E0918B808B81EC90E0938B828B4B
:100AA00082EC90E0958B848B86EC90E0978B868B24
:100AB000118E128E138E148E0895A89584B7877F99
:100AC00084BF809160008861809360001092600014
:100AD00080917C00806480937C0085B78F7E85BF89
:100AE00014B817B81AB88FEF85B988B98BB98FEFDA
:100AF00093E00E94D406C82F80EF8C0F803E40F414
:100B00008EEF93E00E94D406C81302C0C093660023
:100B100086EF93E00E94D406C82F8F3C8CF082337E
:100B20007CF487EF93E00E94D406C81309C08C2F91
:100B3000CC0F990B88539F4F90937B0180937A0140
:100B40008091680082608093680080916C00806270
:100B500080936C0080916800816080936800809130
:100B60006B00806180936B002C98D3E0D4B985B181
:100B70008C7F85B978941092C1001092C50080E1F5
:100B80008093C40012E01093C00088E18093C100FC
:100B9000C6E0C093C2008CEF93E00E94D406873F6A
:100BA00009F481C050F48D3B09F47AC08D3D09F4FD
:100BB0007DC08D3A51F484E070C08E3F09F46CC062
:100BC00008F079C08D3F09F473C06FEF8CEF93E0AC
:100BD0000E94DC0680917901873009F06EC082E1C5
:100BE00091E00E94B10187E291E00E94B1010E9470
:100BF000EB016B017C010E94EB012B013C01C70161
:100C0000B6010E945F018BE591E00E94B101C30132
:100C1000B2010E945F018AE691E00E94B1018091D9
:100C20006D008B7580936D00109284011092850188
:100C3000109286011092870110928801109289010A
:100C400080E380938B018FE580938A0185E791E0B3
:100C50000E94B101C6E0D0E081E4382E4D9B8BC0EC
:100C6000AAE0B0E0A70196010E9419076B017C0180
:100C7000DC01CB01812C912C5401181619061A069F
:100C80001B060CF584199509A609B7092FEF821ADE
:100C9000920AA20AB20AF1CF81E08093790195CF3E
:100CA0001093790192CFD09379018FCF85E0F5CF62
:100CB000C09379018ACF87E0F0CF823009F093CFDB
:100CC0008FE491E092CF892B8A2B8B2B29F081E046
:100CD000881A9108A108B1089701860160E070E0C8
:100CE000CB0110161106120613064CF4041915094F
:100CF000260937096F5F7F4F8F4F9F4FF2CF012B30
:100D0000022B032B21F06150710981099109A30184
:100D100092010E94EA06C61AD70AE80AF90A10E305
:100D2000180D812F0E945801209701F1FE01ED5707
:100D3000FE4F10832197309282010E94DA0104E86D
:100D400011E0A895F80181918F01809382010E94A2
:100D5000DA018CE891E08017910799F710928201EF
:100D60000E94DA018CE090E00E94C60186E090E0EB
:100D70000E94C60173CF8CE491E00E94B1018CEF18
:100D800093E00E94D406682F6F7B8CEF93E00E9463
:100D9000DC0688E199E00FB6F894A895809360008E
:100DA0000FBE90936000FFCFF999FECF92BD81BD39
:100DB000F89A992780B50895262FF999FECF1FBA82
:100DC00092BD81BD20BD0FB6F894FA9AF99A0FBE74
:100DD00001960895DB018F939F930E941907BF919D
:100DE000AF91A29F800D911DA39F900DB29F900D7A
:100DF00011240895052E97FB1EF400940E941107FC
:100E000057FD07D00E94240707FC03D04EF40C9432
:100E1000110750954095309521953F4F4F4F5F4FAB
:100E2000089590958095709561957F4F8F4F9F4F56
:100E300008950E944C07A59F900DB49F900DA49F0C
:100E4000800D911D11240895A1E21A2EAA1BBB1B2F
:100E5000FD010DC0AA1FBB1FEE1FFF1FA217B30786
:100E6000E407F50720F0A21BB30BE40BF50B661F9C
:100E7000771F881F991F1A9469F760957095809560
:100E800090959B01AC01BD01CF010895EE0FFF1FAE
:100E90000590F491E02D0994A29FB001B39FC00189
:100EA000A39F700D811D1124911DB29F700D811D96
:0A0EB0001124911D0895F894FFCF5E
:100EBA0000000000EB005F008C003801BD009B00C1
:100ECA00AF0050726F6772616D20726573746172E0
:100EDA007465642E0D0A000D0A4E756D5F3120612E
:100EEA006E64204E756D5F32203F20284E756D5F0F
:100EFA0032203E204E756D5F31290D0A0D0A000D14
:100F0A000A416761696E0D0A0D0A0020206469763C
:100F1A00696465642062792020002020657175610A
:080F2A006C730D0A00302E006B
:00000001FF
