:100000000C9434000C9451000C9451000C94DA01BF
:100010000C9464010C9429010C9451000C9451002F
:100020000C9451000C9451000C9451000C946400F9
:100030000C9451000C9451000C9451000C945100FC
:100040000C9451000C9451000C9451000C945100EC
:100050000C9451000C9451000C9451000C945100DC
:100060000C9451000C94510011241FBECFEFD8E026
:10007000DEBFCDBF11E0A0E0B1E0E8EEF6E002C0E7
:1000800005900D92A032B107D9F721E0A0E2B1E0CE
:1000900001C01D92A233B207E1F70E9475020C94D1
:1000A00072030C9400001092280181E080932901D2
:1000B00080916B00806180936B0080912801811199
:1000C00002C0A895FACF08951F920F920FB60F9213
:1000D00011240F931F932F933F934F935F936F932D
:1000E0007F938F939F93AF93BF93CF93DF93EF93C0
:1000F000FF9310928500109284007894D091310182
:10010000D093300180912E0190912F01D11112C016
:10011000009781F48CEF91E00E945C03C82F8BEF75
:1001200091E00E945C032C2F30E0322F2227820FB7
:10013000932F911D8C01169507959C013695279557
:1001400036952795AC0163E0569547956A95E1F79A
:10015000242735272827392775E0969587957A959E
:10016000E1F7822793279927869597958827082B6B
:10017000192BDF5FD0933001DF3F79F4612F8CEFD3
:1001800091E00E946403602F8BEF91E00E94640372
:10019000299B48C029981092300110932F01009399
:1001A0002E01C0912E01D0912F0180912E019091AE
:1001B0002F0181709927019602C0CC0FDD1F8A950F
:1001C000E2F700912E0110912F0110928100809191
:1001D00068008D7F8093680081E680932D010E94E6
:1001E000530000932D010E945300C0932D010E94E3
:1001F0005300A89510932D010E945300D0932D0118
:100200000E9453008091680082608093680083E0C0
:100210008093810080913001809331014D9904C019
:10022000F894FCCF299AB7CFFF91EF91DF91CF914E
:10023000BF91AF919F918F917F916F915F914F91FE
:100240003F912F911F910F910F900FBE0F901F9014
:1002500018951F920F920FB60F9211242F933F9370
:100260008F939F934D9B17C0809108019091090136
:10027000069788F04A9B1EC04F9913C02091080131
:1002800030910901809108019091090136952795D7
:10029000821B930B02C086E990E090930901809342
:1002A00008019F918F913F912F910F900FBE0F905A
:1002B0001F901895809108019091090144969093A0
:1002C000090180930801D8CF1F920F920FB60F92A9
:1002D00011242F933F934F935F936F937F938F934B
:1002E0009F93AF93BF93EF93FF93359952C08FE7DE
:1002F0009BEB0197F1F700C00000A895EFE7FBEB3F
:100300003197F1F700C00000A895359942C086E109
:1003100090E0EFE3FCE93197F1F700C00000A89509
:100320000197B9F7359B1FC08CEF93E00E945C03E7
:10033000682F6B7F8CEF93E00E9464038CEF93E057
:100340000E945C03682F6F7B8CEF93E00E94640334
:1003500088E199E00FB6F894A895809360000FBEED
:1003600090936000FFCF299A289A86E190E0EFE30E
:10037000FCE93197F1F700C00000A8950197B9F7A3
:100380003599DCCF789487E480932D010E94530047
:10039000D5CFFF91EF91BF91AF919F918F917F91B9
:1003A0006F915F914F913F912F910F900FBE0F90E2
:1003B0001F9018951F920F920FB60F9211242F9332
:1003C0003F934F938F939F931C9983C080916B00B1
:1003D0008F7E80936B0080912901813009F047C0A6
:1003E00016BC17BC82E085BD80912B0190912C0139
:1003F00097FD01969595879587BDA99BFECF8FEFB9
:1004000085BB2C9A87B590912B01890F87BDA99B3D
:10041000FECF8FEF85BB249A87B590912B01890F72
:1004200087BDA99BFECF8FEF85BB27E030E04FEF64
:1004300080912D01082E000C990B022E02C095957B
:1004400087950A94E2F780FF4EC02C9A87B5909169
:100450002B01890F87BDA99BFECF45BB21503109D8
:1004600038F724982C9881E08093280115BC80915E
:100470002901823071F516BC17BC85BD80912B0116
:1004800090912C0197FD01969595879587BDA99B25
:10049000FECF8FEF85BB88E090E04FEF27B530911E
:1004A0002B01230F27BDA99BFECF45BB2091270120
:1004B000220F330B209327011C9B05C0209127019D
:1004C000216020932701019749F715BC81E08093B3
:1004D00026019F918F914F913F912F910F900FBEC9
:1004E0000F901F9018952C98B1CFA89584B7877F4F
:1004F00084BF8091600088618093600010926000EA
:1005000080917C00806480937C0085B78F7E85BF5E
:1005100014B817B81AB88FEF85B988B98BB98FEFAF
:1005200093E00E945C03C82F80EF8C0F803E40F464
:100530008EEF93E00E945C03C81302C0C093660074
:1005400086EF93E00E945C03C82F8F3C8CF08233CF
:100550007CF487EF93E00E945C03C81309C08C2FE2
:10056000CC0F990B88539F4F90932C0180932B01B4
:100570008091680082608093680080916C00806246
:1005800080936C0080916800816080936800809106
:100590006B00806180936B002C98D3E0D4B985B157
:1005A0008C7F85B978941092C1001092C50080E1CB
:1005B0008093C40012E01093C00088E18093C100D2
:1005C000C6E0C093C2008CEF93E00E945C03873FBB
:1005D00009F468C050F48D3B09F461C08D3D09F405
:1005E00064C08D3A51F484E057C08E3F09F453C083
:1005F00008F060C08D3F09F45AC06FEF8CEF93E0B4
:100600000E94640380912A01873079F4EAE0F1E0E6
:100610008191882351F09091C00095FFFCCF809389
:10062000C60081E0E23DF80799F7809168008D7F70
:100630008093680083E680932D010E945300A89563
:100640008091680082608093680080916800846077
:100650008093680080916D00846880936D00789429
:1006600020910801309109011092850010928400B8
:100670004DE7429FC001439F900D11249093890044
:100680008093880080916F00826080936F0083E088
:1006900080938100FFCF81E080932A01AECF109339
:1006A0002A01ABCFD0932A01A8CF85E0F5CFC09324
:1006B0002A01A3CF87E0F0CFF999FECF92BD81BD8B
:1006C000F89A992780B50895262FF999FECF1FBA79
:1006D00092BD81BD20BD0FB6F894FA9AF99A0FBE6B
:0806E00001960895F894FFCF84
:1006E8000100000000800000960050726F67726180
:1006F8006D207265737461727465642E0D0A000052
:00000001FF
