:100000000C9434000C9451000C9451000C946D022B
:100010000C94F7010C94BC010C9451000C94510009
:100020000C9451000C9451000C9451000C949300CA
:100030000C9451000C9451000C9451000C945100FC
:100040000C9451000C9451000C9451000C945100EC
:100050000C9451000C9451000C9451000C945100DC
:100060000C9451000C94510011241FBECFEFD8E026
:10007000DEBFCDBF11E0A0E0B1E0EEE5F8E002C0E8
:1000800005900D92A032B107D9F721E0A0E2B1E0CE
:1000900001C01D92A133B207E1F70E9408030C943E
:1000A0002D040C9400001092250181E0809326011C
:1000B00080916B00806180936B008091250181119C
:1000C00002C0A895FACF0895EF92FF920F931F9365
:1000D000CF93DF93E82E092FF62E172FC8E6D0E036
:1000E00088818D7F888381E6809327010E94530059
:1000F000E09227010E945300F09227010E945300D2
:10010000A895009327010E945300109327010E9495
:100110005300888182608883DF91CF911F910F9176
:10012000FF90EF9008951F920F920FB60F92112437
:10013000CF92DF92EF92FF922F933F934F935F9373
:100140006F937F938F939F93AF93BF93EF93FF939F
:100150008EE399E490938900809388001092850043
:1001600010928400789480912F019091300108972B
:100170000CF0DBC040912F0150913001C09006017E
:10018000D0900701E0900801F0900901440F551F3D
:1001900021E030E002C0220F331F4A95E2F7C90187
:1001A000330FAA0BBB0B8C299D29AE29BF29809345
:1001B000060190930701A0930801B09309014091B3
:1001C0002F0150913001C0900201D0900301E090C6
:1001D0000401F0900501440F551F20E030E802C0F3
:1001E000369527954A95E2F7C901B0E0A0E08C2941
:1001F0009D29AE29BF298093020190930301A0930A
:100200000401B093050140910201509103016091F6
:100210000401709105018091060190910701A09160
:100220000801B091090110928100BA010E94640096
:1002300083E08093810080912F019091300101969D
:100240009093300180932F0120912F013091300144
:1002500080912D0190912E012817390709F050C087
:100260001092300110922F0180912B0190912C015E
:10027000019690932C0180932B0180912B019091FA
:100280002C0168E070E00E94050490932C0180939B
:100290002B0181E090E09093300180932F0181E069
:1002A00090E0A0E0B0E08093060190930701A09356
:1002B0000801B093090180E090E8A0E0B0E08093ED
:1002C000020190930301A0930401B093050180E122
:1002D00090E090932E0180932D0140910201509166
:1002E00003016091040170910501809106019091D4
:1002F0000701A0910801B0910901BA010E946400B0
:10030000FF91EF91BF91AF919F918F917F916F91ED
:100310005F914F913F912F91FF90EF90DF90CF90A1
:100320000F900FBE0F901F9018958091060190912D
:100330000701A0910801B091090122E0880F991FDF
:10034000AA1FBB1F2A95D1F780930601909307013E
:10035000A0930801B09309018091020190910301DB
:10036000A0910401B091050132E0B595A79597954C
:1003700087953A95D1F73FCF1F920F920FB60F9204
:1003800011242F933F938F939F934D9B17C0809180
:10039000000190910101069788F04A9B1EC04F9979
:1003A00013C02091000130910101809100019091D2
:1003B000010136952795821B930B02C086E990E0D8
:1003C00090930101809300019F918F913F912F9114
:1003D0000F900FBE0F901F90189580910001909183
:1003E000010144969093010180930001D8CF1F92A0
:1003F0000F920FB60F9211242F933F934F935F9359
:100400006F937F938F939F93AF93BF93EF93FF93DC
:10041000359952C08FE79BEB0197F1F700C00000C0
:10042000A895EFE7FBEB3197F1F700C00000A89526
:10043000359942C086E190E0EFE3FCE93197F1F7AE
:1004400000C00000A8950197B9F7359B1FC08CEF3D
:1004500093E00E94EF03682F6B7F8CEF93E00E9484
:10046000F7038CEF93E00E94EF03682F6F7B8CEF14
:1004700093E00E94F70388E199E00FB6F894A895FD
:10048000809360000FBE90936000FFCF299A289A56
:1004900086E190E0EFE3FCE93197F1F700C000005E
:1004A000A8950197B9F73599DCCF789487E48093C4
:1004B00027010E945300D5CFFF91EF91BF91AF91DB
:1004C0009F918F917F916F915F914F913F912F916C
:1004D0000F900FBE0F901F9018951F920F920FB69E
:1004E0000F9211242F933F934F938F939F931C99B7
:1004F00083C080916B008F7E80936B00809126017A
:10050000813009F047C016BC17BC82E085BD8091E0
:10051000290190912A0197FD01969595879587BDB0
:10052000A99BFECF8FEF85BB2C9A87B590912901AF
:10053000890F87BDA99BFECF8FEF85BB249A87B516
:1005400090912901890F87BDA99BFECF8FEF85BBB5
:1005500027E030E04FEF80912701082E000C990B27
:10056000022E02C0959587950A94E2F780FF4EC04F
:100570002C9A87B590912901890F87BDA99BFECF41
:1005800045BB2150310938F724982C9881E080939D
:10059000250115BC80912601823071F516BC17BC6F
:1005A00085BD8091290190912A0197FD019695952D
:1005B000879587BDA99BFECF8FEF85BB88E090E034
:1005C0004FEF27B530912901230F27BDA99BFECFFF
:1005D00045BB20912401220F330B209324011C9B47
:1005E00005C020912401216020932401019749F73F
:1005F00015BC81E0809323019F918F914F913F9192
:100600002F910F900FBE0F901F9018952C98B1CF7F
:10061000A89584B7877F84BF8091600088618093AC
:1006200060001092600080917C00806480937C0068
:1006300085B78F7E85BF14B817B81AB88FEF85B904
:1006400088B98BB98FEF93E00E94EF03C82F80EF3A
:100650008C0F803E40F48EEF93E00E94EF03C813AE
:1006600002C0C093660086EF93E00E94EF03C82F9C
:100670008F3C8CF082337CF487EF93E00E94EF0391
:10068000C81309C08C2FCC0F990B88539F4F9093A0
:100690002A0180932901809168008260809368001C
:1006A00080916C00806280936C0080916800816012
:1006B0008093680080916B00806180936B002C9820
:1006C000D3E0D4B985B18C7F85B978941092C100FC
:1006D0001092C50080E18093C40012E01093C00026
:1006E00088E18093C100C6E0C093C2008CEF93E024
:1006F0000E94EF03873F09F468C050F48D3B09F472
:1007000061C08D3D09F464C08D3A51F484E057C056
:100710008E3F09F453C008F060C08D3F09F45AC001
:100720006FEF8CEF93E00E94F703809128018730F0
:1007300079F4EAE0F1E08191882351F09091C000D2
:1007400095FFFCCF8093C60081E0E23DF80799F762
:10075000809168008D7F8093680083E680932701F5
:100760000E945300A8958091680082608093680081
:100770008091680084608093680080916D00846837
:1007800080936D00789420910001309101011092C6
:100790008500109284004DE7429FC001439F900D59
:1007A0001124909389008093880080916F0082606B
:1007B00080936F0083E080938100FFCF81E080937E
:1007C0002801AECF10932801ABCFD0932801A8CF3A
:1007D00085E0F5CFC0932801A3CF87E0F0CFF9994A
:1007E000FECF92BD81BDF89A992780B50895262F36
:1007F000F999FECF1FBA92BD81BD20BD0FB6F89406
:10080000FA9AF99A0FBE0196089597FB072E16F4EF
:10081000009407D077FD09D00E94190407FC05D089
:100820003EF4909581959F4F0895709561957F4F07
:100830000895AA1BBB1B51E107C0AA1FBB1FA61727
:10084000B70710F0A61BB70B881F991F5A95A9F779
:0E08500080959095BC01CD010895F894FFCFDE
:10085E009600008000000100000050726F67726108
:10086E006D207265737461727465642E0D0A0000DA
:00000001FF
