:100000000C9434000C9451000C9451000C94D600C4
:100010000C9453000C9451000C9451000C9451001A
:100020000C9451000C9451000C9451000C9451000C
:100030000C9451000C9451000C9451000C945100FC
:100040000C9451000C9451000C9451000C945100EC
:100050000C9451000C9451000C9451000C945100DC
:100060000C9451000C94510011241FBECFEFD8E026
:10007000DEBFCDBF11E0A0E0B1E0E6E1F4E002C0F8
:1000800005900D92A631B107D9F721E0A6E1B1E0C4
:1000900001C01D92AC31B207E1F70E9454010C94EB
:1000A00009020C9400001F920F920FB60F921124B8
:1000B0002F933F934F935F936F937F938F939F9370
:1000C000AF93BF93EF93FF9335995FC08FE79BEB9F
:1000D0000197F1F700C00000A895EFE7FBEB31971F
:1000E000F1F700C00000A89535994FC086E190E077
:1000F000EFE3FCE93197F1F700C00000A895019704
:10010000B9F7359B1FC08CEF93E00E94F301682F75
:100110006B7F8CEF93E00E94FB018CEF93E00E94D9
:10012000F301682F6F7B8CEF93E00E94FB0188E165
:1001300099E00FB6F894A895809360000FBE909355
:100140006000FFCF299A289A86E190E0EFE3FCE96E
:100150003197F1F700C00000A8950197B9F73599DC
:10016000DCCF789487E480931A011092190181E022
:100170008093180180916B00806180936B00809167
:1001800019018111CACFA895FACFFF91EF91BF91C4
:10019000AF919F918F917F916F915F914F913F911F
:1001A0002F910F900FBE0F901F9018951F920F92D6
:1001B0000FB60F9211242F933F934F938F939F93DA
:1001C0001C9966C080916B008F7E80936B0080913C
:1001D00018018130B1F516BC17BC82E085BD17BC93
:1001E000A99BFECF8FEF85BB2C9A87B587BDA99BB6
:1001F000FECF8FEF85BB249A87B587BDA99BFECF25
:100200008FEF85BB27E030E04FEF80911A01082E79
:10021000000C990B022E02C0959587950A94E2F77F
:1002200080FF40C02C9A87B587BDA99BFECF45BBF8
:100230002150310950F724982C9881E080931901BE
:1002400015BC80911801823019F516BC17BC85BD0C
:1002500017BCA99BFECF8FEF85BB88E090E04FEFE6
:1002600027B527BDA99BFECF45BB20911701220FC3
:10027000330B209317011C9B05C0209117012160AF
:1002800020931701019761F715BC81E08093160157
:100290009F918F914F913F912F910F900FBE0F9093
:1002A0001F9018952C98BFCFA89584B7877F84BFDF
:1002B000809160008861809360001092600080915E
:1002C0007C00806480937C0085B78F7E85BF14B8E6
:1002D00017B81AB88FEF85B988B98BB98FEF93E04B
:1002E0000E94F301C82F80EF8C0F803E40F48EEF08
:1002F00093E00E94F301C81302C0C093660080918E
:10030000680082608093680080916C0080628093B6
:100310006C0083E084B985B18C7F85B9789485E0E1
:1003200090E022EB37E02093B2003093B100B89B0D
:10033000FECFB89A1092B100A8950197A1F78CEF63
:1003400093E00E94F301873F09F445C050F48D3BD0
:1003500009F43FC08D3D09F440C08D3A41F484E07A
:1003600035C08E3F91F108F03CC08D3FC1F16FEF79
:100370008CEF93E00E94FB0180911B01873079F4A0
:10038000E0E0F1E08191882351F09091C00095FF69
:10039000FCCF8093C60081E0E83CF80799F7299AE2
:1003A0008CEF93E00E94F301682F6F7B8CEF93E05A
:1003B0000E94FB0188E199E00FB6F894A89580931C
:1003C00060000FBE90936000FFCF81E080931B011F
:1003D000CECF82E0FBCF83E0F9CF85E0F7CF86E098
:1003E000F5CF87E0F3CFF999FECF92BD81BDF89AA2
:1003F000992780B50895262FF999FECF1FBA92BD8F
:1004000081BD20BD0FB6F894FA9AF99A0FBE0196F5
:060410000895F894FFCFEF
:100416000D0A50726F6772616D2072657374617236
:060426007465642E000065
:00000001FF
