:100000000C9434000C9451000C9451000C94F200A8
:100010000C946F000C9451000C9451000C945100FE
:100020000C9451000C9451000C9451000C9451000C
:100030000C9451000C9451000C9451000C945100FC
:100040000C9451000C9451000C9451000C945100EC
:100050000C9451000C9451000C9451000C945100DC
:100060000C9451000C94510011241FBECFEFD8E026
:10007000DEBFCDBF11E0A0E0B1E0EEE4F6E002C0EB
:1000800005900D92A832B107D9F721E0A8E2B1E0BE
:1000900001C01D92A033B207E1F70E948D010C94BC
:1000A00025030C9400009091C00095FFFCCF809335
:1000B000C60008950F931F93CF93DF93EC018C013B
:1000C00008531F4F8991882329F00E945300C017BD
:1000D000D107C1F7DF91CF911F910F9108951F9222
:1000E0000F920FB60F9211242F933F934F935F936C
:1000F0006F937F938F939F93AF93BF93EF93FF93F0
:1001000035995FC08FE79BEB0197F1F700C00000C6
:10011000A895EFE7FBEB3197F1F700C00000A89539
:1001200035994FC086E190E0EFE3FCE93197F1F7B4
:1001300000C00000A8950197B9F7359B1FC08CEF50
:1001400093E00E94CE02682F6B7F8CEF93E00E94B9
:10015000D6028CEF93E00E94CE02682F6F7B8CEF6B
:1001600093E00E94D60288E199E00FB6F894A89532
:10017000809360000FBE90936000FFCF299A289A69
:1001800086E190E0EFE3FCE93197F1F700C0000071
:10019000A8950197B9F73599DCCF789487E48093D7
:1001A0002C0110922B0181E080932A0180916B0039
:1001B000806180936B0080912B018111CACFA8953B
:1001C000FACFFF91EF91BF91AF919F918F917F9166
:1001D0006F915F914F913F912F910F900FBE0F90B4
:1001E0001F9018951F920F920FB60F9211242F9304
:1001F0003F934F938F939F931C9983C080916B0083
:100200008F7E80936B0080912A01813009F047C076
:1002100016BC17BC82E085BD80912E0190912F0104
:1002200097FD01969595879587BDA99BFECF8FEF8A
:1002300085BB2C9A87B590912E01890F87BDA99B0C
:10024000FECF8FEF85BB249A87B590912E01890F41
:1002500087BDA99BFECF8FEF85BB27E030E04FEF36
:1002600080912C01082E000C990B022E02C095954E
:1002700087950A94E2F780FF4EC02C9A87B590913B
:100280002E01890F87BDA99BFECF45BB21503109A7
:1002900038F724982C9881E080932B0115BC80912D
:1002A0002A01823071F516BC17BC85BD80912E01E4
:1002B00090912F0197FD01969595879587BDA99BF4
:1002C000FECF8FEF85BB88E090E04FEF27B53091F0
:1002D0002E01230F27BDA99BFECF45BB20912901ED
:1002E000220F330B209329011C9B05C0209129016B
:1002F000216020932901019749F715BC81E0809383
:1003000028019F918F914F913F912F910F900FBE98
:100310000F901F9018952C98B1CFCF93DF93CDB746
:10032000DEB72C970FB6F894DEBF0FBECDBFA895F1
:1003300084B7877F84BF809160008861809360006C
:100340001092600080917C00806480937C0085B76F
:100350008F7E85BF14B817B81AB88FEF85B988B9E2
:100360008BB98FEF93E00E94CE02182F80EF810FA0
:10037000803E40F48EEF93E00E94CE02181302C03C
:100380001093660086EF93E00E94CE02182F8F3CF8
:100390008CF082337CF487EF93E00E94CE02181336
:1003A00009C0812F110F990B88539F4F90932F01F4
:1003B00080932E0180916800826080936800809114
:1003C0006C00806280936C008091680081608093F3
:1003D000680080916B00806180936B002C9803E033
:1003E00004B985B18C7F85B978941092C1001092C0
:1003F000C50080E18093C40052E0F52EF092C00069
:1004000088E18093C10016E01093C2008CEF93E066
:100410000E94CE02873F09F465C050F48D3B09F479
:100420005EC08D3D09F461C08D3A51F484E054C042
:100430008E3F09F450C008F05DC08D3F09F457C0ED
:100440006FEF8CEF93E00E94D60280912D018730F0
:1004500021F480E091E00E945A0085E191E00E9441
:100460005A00CC24C394D12CEE24E39439E0F32E2B
:100470009E012F5F3F4F19014AE0442E512C612C01
:10048000712C4601B12CA12C3FEF831A930AA30AC9
:10049000B30A640182E090E0889FA001899F500D1B
:1004A000500D1124C416D50608F465C0FA01E81BE6
:1004B000F90B30E020E0BA01620F731F6C157D0567
:1004C00019F3280F391FBF01620F731FC616D70615
:1004D00090F70196E1CF81E080932D01B1CFF092AA
:1004E0002D01AECF00932D01ABCF85E0F5CF10935A
:1004F0002D01A6CF87E0F0CF8091C60082E191E088
:100500000E945A009AE0F92E06C0FF2009F4B9CFE4
:100510008AE0F81699F3C501B401882799274101AB
:1005200010E000E00F5F1F4FA30192010E94E40260
:10053000605DF40161934F01B901CA016115710554
:100540008105910579F7020D131DF8011082F8015C
:1005500082918F010E94530020163106C1F780E27C
:100560000E94530080E20E945300FA94F11089CF58
:100570008AE0F82E86CF28EC3E2D3203C0011124EC
:100580008C159D0510F682E191E00E945A00E394DB
:100590008091C00087FDB0CFA895FACFF999FECF22
:1005A00092BD81BDF89A992780B50895262FF999B3
:1005B000FECF1FBA92BD81BD20BD0FB6F894FA9A46
:1005C000F99A0FBE01960895052E97FB1EF400942C
:1005D0000E94FB0257FD07D00E94030307FC03D0D3
:1005E0004EF40C94FB0250954095309521953F4F69
:1005F0004F4F5F4F089590958095709561957F4F0F
:100600008F4F9F4F0895A1E21A2EAA1BBB1BFD011D
:100610000DC0AA1FBB1FEE1FFF1FA217B307E407E1
:10062000F50720F0A21BB30BE40BF50B661F771F39
:10063000881F991F1A9469F7609570958095909519
:0E0640009B01AC01BD01CF010895F894FFCFDE
:10064E0050726F6772616D2072657374617274653A
:10065E00642E0D0A004E6577206D6574686F645FB9
:08066E00320D0A3120200000CA
:00000001FF
