:100000000C9434000C9451000C9451000C94DA00C0
:100010000C9464000C9451000C9451000C94510009
:100020000C9451000C9451000C9451000C9451000C
:100030000C9451000C9451000C9451000C945100FC
:100040000C9451000C9451000C9451000C945100EC
:100050000C9451000C9451000C9451000C945100DC
:100060000C9451000C94510011241FBECFEFD8E026
:10007000DEBFCDBF11E0A0E0B1E0E4E0F5E002C0FA
:1000800005900D92A631B107D9F721E0A6E1B1E0C4
:1000900001C01D92AE31B207E1F70E9475010C94C8
:1000A00080020C9400001092180181E080931901E5
:1000B00080916B00806180936B00809118018111A9
:1000C00002C0A895FACF08951F920F920FB60F9213
:1000D00011242F933F934F935F936F937F938F934D
:1000E0009F93AF93BF93EF93FF93359952C08FE7E0
:1000F0009BEB0197F1F700C00000A895EFE7FBEB41
:100100003197F1F700C00000A895359942C086E10B
:1001100090E0EFE3FCE93197F1F700C00000A8950B
:100120000197B9F7359B1FC08CEF93E00E946A02DC
:10013000682F6B7F8CEF93E00E9472028CEF93E04C
:100140000E946A02682F6F7B8CEF93E00E9472021C
:1001500088E199E00FB6F894A895809360000FBEEF
:1001600090936000FFCF299A289A86E190E0EFE310
:10017000FCE93197F1F700C00000A8950197B9F7A5
:100180003599DCCF789487E480931A010E9453005C
:10019000D5CFFF91EF91BF91AF919F918F917F91BB
:1001A0006F915F914F913F912F910F900FBE0F90E4
:1001B0001F9018951F920F920FB60F9211242F9334
:1001C0003F934F938F939F931C9983C080916B00B3
:1001D0008F7E80936B0080911901813009F047C0B8
:1001E00016BC17BC82E085BD80911C0190911D0159
:1001F00097FD01969595879587BDA99BFECF8FEFBB
:1002000085BB2C9A87B590911C01890F87BDA99B4E
:10021000FECF8FEF85BB249A87B590911C01890F83
:1002200087BDA99BFECF8FEF85BB27E030E04FEF66
:1002300080911A01082E000C990B022E02C0959590
:1002400087950A94E2F780FF4EC02C9A87B590916B
:100250001C01890F87BDA99BFECF45BB21503109E9
:1002600038F724982C9881E08093180115BC809170
:100270001901823071F516BC17BC85BD80911C0137
:1002800090911D0197FD01969595879587BDA99B36
:10029000FECF8FEF85BB88E090E04FEF27B5309120
:1002A0001C01230F27BDA99BFECF45BB2091170141
:1002B000220F330B209317011C9B05C020911701BF
:1002C000216020931701019749F715BC81E08093C5
:1002D00016019F918F914F913F912F910F900FBEDB
:1002E0000F901F9018952C98B1CFA89584B7877F51
:1002F00084BF8091600088618093600010926000EC
:1003000080917C00806480937C0085B78F7E85BF60
:1003100014B817B81AB88FEF85B988B98BB98FEFB1
:1003200093E00E946A02C82F80EF8C0F803E40F459
:100330008EEF93E00E946A02C81302C0C093660069
:1003400086EF93E00E946A02C82F8F3C8CF08233C4
:100350007CF487EF93E00E946A02C81309C08C2FD7
:10036000CC0F990B88539F4F90931D0180931C01D4
:100370008091680082608093680080916C00806248
:1003800080936C0080916800816080936800809108
:100390006B00806180936B002C98D3E0D4B985B159
:1003A0008C7F85B978941092C1001092C50080E1CD
:1003B0008093C40012E01093C00088E18093C100D4
:1003C000C6E0C093C2008CEF93E00E946A02873FB0
:1003D00009F476C050F48D3B09F46FC08D3D09F4EB
:1003E00072C08D3A51F484E065C08E3F09F461C05B
:1003F00008F06EC08D3F09F468C06FEF8CEF93E09A
:100400000E94720280911B01873081F4E0E0F1E0EC
:1004100028EC31E08191882349F09091C00095FF4C
:10042000FCCF8093C6002E173F07A1F711E6C0E26C
:10043000D0E0C12CD12CE12C40E8F42E812C912C61
:1004400054018394809168008D7F8093680010939D
:100450001A010E94530080921A010E945300C09218
:100460001A010E945300A895892D992780931A019B
:100470000E9453008D2D992780931A010E945300EA
:10048000809168008260809368002FEF86E791E09A
:10049000215080409040E1F700C00000880C991C7A
:1004A000AA1CBB1CF694E794D794C794219751F6E5
:1004B000BECF81E080931B01A0CF10931B019DCF85
:1004C000D0931B019ACF85E0F5CFC0931B0195CF48
:1004D00087E0F0CFF999FECF92BD81BDF89A9927B8
:1004E00080B50895262FF999FECF1FBA92BD81BD20
:1004F00020BD0FB6F894FA9AF99A0FBE01960895A6
:04050000F894FFCF9D
:100504000D0A50726F6772616D2072657374617247
:060514007465642E000076
:00000001FF
