:100000000C9434000C9451000C9451000C942B016E
:100010000C94B5000C9451000C9451000C945100B8
:100020000C9451000C9451000C9451000C9451000C
:100030000C9451000C9451000C9451000C945100FC
:100040000C9451000C9451000C9451000C945100EC
:100050000C9451000C9451000C9451000C945100DC
:100060000C9451000C94510011241FBECFEFD8E026
:10007000DEBFCDBF11E0A0E0B1E0E6ECF7E002C0EA
:1000800005900D92A633B107D9F721E0A6E3B1E0C0
:1000900001C01D92AE33B207E1F70E94C6010C9475
:1000A000E1030C9400009091C00095FFFCCF809379
:1000B000C60008950F931F93CF93DF93EC018C013B
:1000C00008531F4F8991882329F00E945300C017BD
:1000D000D107C1F7DF91CF911F910F91089530E0C3
:1000E00020E04091C00047FD0BC02F5F3F4FA89517
:1000F00021344FE13407ACF3019789F780E008958C
:1001000081E008951092360181E08093370180915B
:100110006B00806180936B0080913601811102C079
:10012000A895FACF0895EF92FF921F93CF93DF9394
:100130007C01162F81E480933A010E948200E7013E
:1001400088E0E80EF11CA895899180933A010E94FD
:100150008200CE15DF05B9F710933A01DF91CF91F8
:100160001F91FF90EF900C9482001F920F920FB698
:100170000F9211242F933F934F935F936F937F932D
:100180008F939F93AF93BF93EF93FF93359952C093
:100190008FE79BEB0197F1F700C00000A895EFE710
:1001A000FBEB3197F1F700C00000A895359942C0EC
:1001B00086E190E0EFE3FCE93197F1F700C0000041
:1001C000A8950197B9F7359B1FC08CEF93E00E946B
:1001D0008A03682F6B7F8CEF93E00E9492038CEF71
:1001E00093E00E948A03682F6F7B8CEF93E00E945C
:1001F000920388E199E00FB6F894A8958093600087
:100200000FBE90936000FFCF299A289A86E190E074
:10021000EFE3FCE93197F1F700C00000A8950197E2
:10022000B9F73599DCCF789487E480933A010E943E
:100230008200D5CFFF91EF91BF91AF919F918F91A8
:100240007F916F915F914F913F912F910F900FBED2
:100250000F901F9018951F920F920FB60F921124B6
:100260002F933F934F938F939F931C9983C08091BB
:100270006B008F7E80936B0080913701813009F095
:1002800047C016BC17BC82E085BD80913C019091AF
:100290003D0197FD01969595879587BDA99BFECF5A
:1002A0008FEF85BB2C9A87B590913C01890F87BD54
:1002B000A99BFECF8FEF85BB249A87B590913C0117
:1002C000890F87BDA99BFECF8FEF85BB27E030E06C
:1002D0004FEF80913A01082E000C990B022E02C0BC
:1002E000959587950A94E2F780FF4EC02C9A87B5C2
:1002F00090913C01890F87BDA99BFECF45BB215042
:10030000310938F724982C9881E08093360115BC88
:1003100080913701823071F516BC17BC85BD809184
:100320003C0190913D0197FD01969595879587BD7C
:10033000A99BFECF8FEF85BB88E090E04FEF27B5FC
:1003400030913C01230F27BDA99BFECF45BB2091D7
:100350003901220F330B209339011C9B05C02091DA
:100360003901216020933901019749F715BC81E0DB
:10037000809338019F918F914F913F912F910F90D2
:100380000FBE0F901F9018952C98B1CFCF93DF938D
:10039000CDB7DEB76D970FB6F894DEBF0FBECDBFF9
:1003A000A89584B7877F84BF80916000886180931F
:1003B00060001092600080917C00806480937C00DB
:1003C00085B78F7E85BF14B817B81AB88FEF85B977
:1003D00088B98BB98FEF93E00E948A03182F80EFC2
:1003E000810F803E40F48EEF93E00E948A03181341
:1003F00002C01093660086EF93E00E948A03182FD4
:100400008F3C8CF082337CF487EF93E00E948A0368
:10041000181309C0812F110F990B88539F4F909388
:100420003D0180933C018091680082608093680068
:1004300080916C00806280936C0080916800816084
:100440008093680080916B00806180936B002C9892
:1004500003E004B985B18C7F85B978941092C1000E
:100460001092C50080E18093C40042E0B42EB092A7
:10047000C00088E18093C10016E01093C2008CEFA9
:1004800093E00E948A03873F29F140F48D3BF9F005
:100490008D3D19F18D3A39F484E016C08E3F99F004
:1004A00008F58D3FE1F06FEF8CEF93E00E9492032F
:1004B00080913B018730C1F480E091E00E945A00B6
:1004C0008DE191E015C081E080933B01ECCFB092CB
:1004D0003B01E9CF00933B01E6CF85E0F5CF1093D8
:1004E0003B01E1CF87E0F0CF823051F785E191E029
:1004F0000E945A001D861E861F86188A198A1A8A2B
:100500001B8A1C8A1D8A88E090E00E946F00882365
:10051000D1F38091C6008D3011F08A3051F581E021
:1005200090E00E946F0081118091C60061E0CE01D1
:100530000D960E94930085E480933A010E94820008
:10054000FE0179969E01235E3F4FDF0192E0A89560
:1005500010923901109238019093370180916B000D
:10056000806180936B008091380181111DC0A89536
:10057000FACF90ED980F9A3030F69C899D8B9B892D
:100580009C8B9A899B8B99899A8B9889998B9F854B
:10059000988B9E859F879D859E878D8760E0CE0185
:1005A0000D960E949300AFCF809139018D932A1749
:1005B0003B0769F6A895FE2CED2CDC2CCC24819110
:1005C000C82AAE17BF07B1F7F7FE43C0882799279F
:1005D000DC018C199D09AE09BF092DE22D8FBC01EC
:1005E000CD01FE0131965F014F012AE0422E512CD0
:1005F000612C712CA30192010E94A003605DF401A3
:1006000061934F018F010A191B09B901CA016115D4
:1006100071058105910571F7F501E00FF11F108259
:10062000FD8DFD3219F48DE20E9453000A0D1B1D51
:10063000F80182918F010E9453000A151B05C1F732
:1006400080E20E9453008091C00087FD07C0A895FA
:10065000FACFD701C6013BE23D8FC1CF8091C600E2
:1006600082E0482E512C612C712C93E4392EC11458
:10067000D104E104F104C9F1C701B601A30192015B
:100680000E94C20349015A017A0169018091680000
:100690008D7F8093680030923A010E94820008E1C9
:1006A00010E0A895D501C401002E04C0B595A7950A
:1006B000979587950A94D2F780933A010E94820019
:1006C000A89508501109083FFFEF1F0751F78091C7
:1006D00068008260809368008091C00087FD02C03E
:1006E000A895FACF8091C600C2CF8CEF93E00E940C
:1006F0008A03682F6F7B8CEF93E00E94920388E15E
:1007000099E00FB6F894A895809360000FBE90937F
:100710006000FFCFF999FECF92BD81BDF89A99276D
:1007200080B50895262FF999FECF1FBA92BD81BDDD
:1007300020BD0FB6F894FA9AF99A0FBE0196089563
:10074000A1E21A2EAA1BBB1BFD010DC0AA1FBB1FD5
:10075000EE1FFF1FA217B307E407F50720F0A21B47
:10076000B30BE40BF50B661F771F881F991F1A94B4
:1007700069F760957095809590959B01AC01BD01DE
:10078000CF010895052E97FB1EF400940E94D90313
:1007900057FD07D00E94A00307FC03D04EF40C9431
:1007A000D90350954095309521953F4F4F4F5F4F5E
:1007B000089590958095709561957F4F8F4F9F4FCD
:0607C0000895F894FFCF3C
:1007C60050726F6772616D207265737461727465C1
:1007D600642E0D0A000D0A416761696E00456E744C
:1007E6006572206E756D626572206174206B657925
:0607F600626F61726400F5
:00000001FF
