:100000000C9435000C945D000C945D000C94E80297
:100010000C9472020C9401020C945D000C94C101CA
:100020000C945D000C945D000C945D000C945D00DC
:100030000C945D000C945D000C945D000C945D00CC
:100040000C945D000C945D000C948F010C9469017C
:100050000C945D000C945D000C945D000C945D00AC
:100060000C945D000C945D00830311241FBECFEF40
:10007000D8E0DEBFCDBF11E0A0E0B1E0E8E9FAE0F2
:1000800002C005900D92A832B107D9F721E0A8E28D
:10009000B1E001C01D92A83DB207E1F710E0C5E351
:1000A000D0E004C02197FE010E944405C433D1076B
:1000B000C9F70E94B0030C944A050C940000AF925B
:1000C000BF92CF92DF92EF92FF920F931F93CF9345
:1000D000DF936C017B018B01040F151FEB015E01A7
:1000E000AE18BF08C017D10759F06991D601ED913C
:1000F000FC910190F081E02DC6010995892B79F7DB
:10010000C501DF91CF911F910F91FF90EF90DF908C
:10011000CF90BF90AF900895FC01538D448D252F53
:1001200030E0842F90E0821B930B541710F0CF9691
:10013000089501970895FC01918D828D981761F0C3
:10014000A28DAE0FBF2FB11D5D968C91928D9F5FDA
:100150009F73928F90E008958FEF9FEF0895FC01B9
:10016000918D828D981731F0828DE80FF11D858D6C
:1001700090E008958FEF9FEF0895FC01918D228DFF
:10018000892F90E0805C9F4F821B91098F73992784
:100190000895FC01A48DA80FB92FB11DA35ABF4F1C
:1001A0002C91848D90E001968F739927848FA68976
:1001B000B7892C93A089B1898C91837080648C93CA
:1001C000938D848D981306C00288F389E02D808179
:1001D0008F7D80830895EF92FF920F931F93CF93AB
:1001E000DF93EC0181E0888F9B8D8C8D98131AC072
:1001F000E889F989808185FF15C09FB7F894EE8959
:10020000FF896083E889F9898081837080648083B5
:100210009FBF81E090E0DF91CF911F910F91FF9000
:10022000EF900895F62E0B8D10E00F5F1F4F0F73A8
:100230001127E02E8C8D8E110CC00FB607FCFACF63
:10024000E889F989808185FFF5CFCE010E94C90038
:10025000F1CFEB8DEC0FFD2FF11DE35AFF4FF08234
:100260009FB7F8940B8FEA89FB8980818062CFCF9A
:10027000CF93DF93EC01888D8823B9F0AA89BB89DD
:10028000E889F9898C9185FD03C0808186FD0DC0C8
:100290000FB607FCF7CF8C9185FFF2CF808185FFE9
:1002A000EDCFCE010E94C900E9CFDF91CF91089533
:1002B00010922A0181E080932B0180916B00806174
:1002C00080936B0080912A01811102C0A895FACF1A
:1002D00008951F920F920FB60F9211242F933F9300
:1002E0004F935F936F937F938F939F93AF93BF933E
:1002F000EF93FF938BE391E00E94C900FF91EF9190
:10030000BF91AF919F918F917F916F915F914F912D
:100310003F912F910F900FBE0F901F9018951F9235
:100320000F920FB60F9211242F938F939F93EF93F9
:10033000FF93E0914B01F0914C018081E0915101DC
:10034000F091520182FD1BC09081809154018F5F1A
:100350008F7320915501821741F0E0915401F0E034
:10036000E55CFE4F958F80935401FF91EF919F9133
:100370008F912F910F900FBE0F901F901895808135
:10038000F4CF1F920F920FB60F9211248F939F9369
:10039000AF93BF938091370190913801A0913901BB
:1003A000B0913A010196A11DB11D80933701909340
:1003B0003801A0933901B0933A018091B300875D71
:1003C0008093B300809136018F5F809336018091D6
:1003D00035018F5F8093350180913501833641F47B
:1003E0008FEF809335018091B30084508093B300E8
:1003F000BF91AF919F918F910F900FBE0F901F9063
:1004000018951F920F920FB60F9211242F933F93BE
:100410004F935F936F937F938F939F93AF93BF930C
:10042000EF93FF934A9B04C04D9B02C04F9949C074
:100430004D991DC080916D008F7D80936D008091DE
:10044000370190913801A0913901B0913A01809320
:10045000310190933201A0933301B093340181E0D4
:100460008093300180916D00846080936D004A9983
:100470000DC080916D008B7F80936D0082E0809332
:10048000300180916D00806280936D004F9919C09A
:100490004F9902C0A895FCCF8CEF93E00E942E05E7
:1004A000682F6F7B8CEF93E00E94360588E199E01E
:1004B0000FB6F894A895809360000FBE90936000EB
:1004C000FFCFFF91EF91BF91AF919F918F917F915E
:1004D0006F915F914F913F912F910F900FBE0F90B1
:1004E0001F9018951F920F920FB60F9211242F9301
:1004F0003F934F935F936F937F938F939F93AF93AC
:10050000BF93EF93FF93359952C08FE79BEB019711
:10051000F1F700C00000A895EFE7FBEB3197F1F78A
:1005200000C00000A895359942C086E190E0EFE355
:10053000FCE93197F1F700C00000A8950197B9F7E1
:10054000359B1FC08CEF93E00E942E05682F6B7FB8
:100550008CEF93E00E9436058CEF93E00E942E050D
:10056000682F6F7B8CEF93E00E94360588E199E05D
:100570000FB6F894A895809360000FBE909360002A
:10058000FFCF299A289A86E190E0EFE3FCE93197C2
:10059000F1F700C00000A8950197B9F73599DCCFB5
:1005A000789487E480932C010E945801D5CFFF9165
:1005B000EF91BF91AF919F918F917F916F915F91DB
:1005C0004F913F912F910F900FBE0F901F90189554
:1005D0001F920F920FB60F9211242F933F934F93B8
:1005E0008F939F931C9983C080916B008F7E809323
:1005F0006B0080912B01813009F047C016BC17BCFD
:1006000082E085BD80912E0190912F0197FD01968A
:100610009595879587BDA99BFECF8FEF85BB2C9ABB
:1006200087B590912E01890F87BDA99BFECF8FEFD3
:1006300085BB249A87B590912E01890F87BDA99B10
:10064000FECF8FEF85BB27E030E04FEF80912C018C
:10065000082E000C990B022E02C0959587950A94DE
:10066000E2F780FF4EC02C9A87B590912E01890F3A
:1006700087BDA99BFECF45BB2150310938F724988F
:100680002C9881E080932A0115BC80912B01823047
:1006900071F516BC17BC85BD80912E0190912F017C
:1006A00097FD01969595879587BDA99BFECF8FEF06
:1006B00085BB88E090E04FEF27B530912E01230FE6
:1006C00027BDA99BFECF45BB20912901220F330BEB
:1006D000209329011C9B05C02091290121602093B2
:1006E0002901019749F715BC81E0809328019F916A
:1006F0008F914F913F912F910F900FBE0F901F90B0
:1007000018952C98B1CFEBE3F1E01382128288EEBA
:1007100093E0A0E0B0E084839583A683B78384E070
:1007200091E09183808385EC90E09587848784ECC9
:1007300090E09787868780EC90E0918B808B81ECAE
:1007400090E0938B828B82EC90E0958B848B86EC8F
:1007500090E0978B868B118E128E138E148E0895D7
:10076000CF93DF93CDB7DEB728970FB6F894DEBFEF
:100770000FBECDBFA89584B7877F84BF80916000EE
:100780008861809360001092600080917C0080649A
:1007900080937C0085B78F7E85BF14B817B81AB8D0
:1007A0008FEF85B988B98BB98FEF93E00E942E0542
:1007B000182F80EF810F803E40F48EEF93E00E946F
:1007C0002E05181302C01093660086EF93E00E9476
:1007D0002E05182F8F3C8CF082337CF487EF93E04A
:1007E0000E942E05181309C0812F110F990B8853F1
:1007F0009F4F90932F0180932E018091680082601B
:100800008093680080916C00806280936C0080917E
:10081000680081608093680080916B0080618093A4
:100820006B002C9803E004B985B18C7F85B978946E
:100830001092C1001092C50080E18093C40042E094
:10084000F42EF092C00088E18093C10016E010936E
:10085000C2008CEF93E00E942E05873F09F475C01B
:1008600050F48D3B09F46EC08D3D09F471C08D3A92
:1008700051F484E064C08E3F09F460C008F06DC09C
:100880008D3F09F467C06FEF8CEF93E00E9436054F
:1008900080912D01873079F4E2E1F1E081918823A4
:1008A00051F09091C00095FFFCCF8093C60081E08D
:1008B000EA3DF80799F780E389838A838B838C83E9
:1008C0008D838E838F83888780E28093B600109219
:1008D000B2001092B0008091B10082608093B100AC
:1008E0001092B40086E480932C010E9458018AE49F
:1008F00080932C010E945801A895FE0131967F013A
:1009000010E000E0F70181917F010430110531F022
:100910000630110519F00230110509F48068809342
:100920002C010E945801A8950F5F1F4F0830110538
:1009300049F7F8944F9B13C0A895FCCF81E08093B2
:100940002D01A1CFF0922D019ECF00932D019BCFC1
:1009500085E0F5CF10932D0196CF87E0F0CF4F992A
:1009600002C0A895FCCF7894109230011092370104
:10097000109238011092390110923A01109235010B
:100980001092B20089E28093B3008091700082607F
:1009900080937000809168008460809368008091EB
:1009A0006D00846A80936D003EE4B32E1BE40FE477
:1009B00080913601843114F4A895FACF1092360153
:1009C00080913001813051F0823009F43BC08111B7
:1009D000EFCF10932C010E945801EECFC09031014F
:1009E000D0903201E0903301F0903401B0922C01AC
:1009F0000E945801A8958F2DBB2787FDB0959B2F8E
:100A0000AB2F80932C010E945801A895C701BB27EA
:100A100097FDB095AB2F80932C010E945801A895AB
:100A2000BB27F7FCBA95AF2D9E2D8D2D80932C0101
:100A30000E945801A895C0922C010E945801109262
:100A40003001C7CF1092300110932C010E94580141
:100A5000A89500932C010E945801AACFF999FECFC6
:100A600092BD81BDF89A992780B50895262FF999EE
:100A7000FECF1FBA92BD81BD20BD0FB6F894FA9A81
:100A8000F99A0FBE01960895EE0FFF1F0590F4919D
:080A9000E02D0994F894FFCF5A
:100A980000000000EB005F008C003801BD009B00E7
:100AA800AF000D0A50726F6772616D2072657374C2
:080AB80061727465642E0000F8
:00000001FF
