:100000000C9434000C9451000C9451000C94DD00BD
:100010000C947A000C9469000C9451000C945100DB
:100020000C9451000C9451000C9451000C9451000C
:100030000C9451000C9451000C9451000C945100FC
:100040000C9451000C9451000C9451000C945100EC
:100050000C9451000C9451000C9451000C945100DC
:100060000C9451000C94510011241FBECFEFD8E026
:10007000DEBFCDBF11E0A0E0B1E0EAE4F7E002C0EE
:1000800005900D92A430B107D9F721E0A4E0B1E0CA
:1000900001C01D92AC30B207E1F70E9478010C94C8
:1000A000A3030C9400009091C00095FFFCCF8093B7
:1000B000C60008951092060181E0809307018091A7
:1000C0006B00806180936B00809106018823E1F3CF
:1000D00008951F920F920FB60F9211248F934D998E
:1000E00003C08AE080930B018F910F900FBE0F9099
:1000F0001F9018951F920F920FB60F9211242F93F5
:100100003F934F935F936F937F938F939F93AF939F
:10011000BF93EF93FF9335993FC02FE788E391E0BA
:10012000215080409040E1F700C00000359934C074
:100130002FE78CEF9AE0215080409040E1F700C01B
:100140000000359B15C08CEF93E00E944C03682F94
:100150006D7F8CEF93E00E94540388E199E00FB625
:10016000F894A895809360000FBE90936000FFCF35
:10017000299A289A2FEF84E39CE0215080409040F8
:10018000E1F700C000003599E8CF789487E48093C8
:1001900008010E945A00E1CFFF91EF91BF91AF910A
:1001A0009F918F917F916F915F914F913F912F918F
:1001B0000F900FBE0F901F9018951F920F920FB6C1
:1001C0000F9211242F933F934F938F939F931C99DA
:1001D00083C080916B008F7E80936B0080910701BC
:1001E000813009F047C016BC17BC82E085BD809104
:1001F000090190910A0197FD01969595879587BD14
:10020000A99BFECF8FEF85BB2C9A87B590910901F2
:10021000890F87BDA99BFECF8FEF85BB249A87B539
:1002200090910901890F87BDA99BFECF8FEF85BBF8
:1002300027E030E04FEF80910801082E000C990B69
:10024000022E02C0959587950A94E2F780FF4EC072
:100250002C9A87B590910901890F87BDA99BFECF84
:1002600045BB2150310938F724982C9881E08093C0
:10027000060115BC80910701823071F516BC17BCD0
:1002800085BD8091090190910A0197FD0196959590
:10029000879587BDA99BFECF8FEF85BB88E090E057
:1002A0004FEF27B530910901230F27BDA99BFECF42
:1002B00045BB20910501220F330B209305011C9BA8
:1002C00005C020910501216020930501019749F7A0
:1002D00015BC81E0809304019F918F914F913F91D4
:1002E0002F910F900FBE0F901F9018952C98B1CFA3
:1002F000CF93DF93CDB7DEB7C25AD1400FB6F89493
:10030000DEBF0FBECDBFA89584B7877F84BF809125
:1003100060008861809360001092600080917C0092
:10032000806480937C0085B78F7E85BF14B817B832
:100330001AB88FEF85B988B98BB98FEF93E00E9417
:100340004C03182F80EF810F803E40F48EEF93E036
:100350000E944C03181302C01093660086EF93E0CE
:100360000E944C03182F8F3C8CF082337CF487EF73
:1003700093E00E944C03181309C0812F110F990BB1
:1003800088539F4F90930A018093090180916800E0
:1003900082608093680080916C00806280936C0022
:1003A0001092C1001092C50080E18093C40082E0E9
:1003B0008093C00088E18093C10086E08093C200F2
:1003C0008091680081608093680080916B008061FB
:1003D00080936B002C9884B1836084B92998289805
:1003E00078948091680084608093680080916D00AB
:1003F000806280936D0010920B017894B12CA12C37
:100400003E014FE6641A4EEF740A8AE0282E312C22
:10041000412C512C88EC8A9D90018B9D300D11242C
:10042000CE0101967C01FC0190E080E00196AC01D8
:10043000420F531F41935193883C9105B9F7F50141
:100440003196C356DE4FF983E883CD59D140D901A7
:10045000A853BF4F70E060E0621B730B660F771FFD
:1004600082E090E0889FA001899F500D500D1124DB
:100470004A175B0724F5F0E0E0E024173507CCF4D9
:10048000E80FF91FE89FA001E99F500DF89F500D5C
:100490001124A417B5078CF0FA01EE0FFF1FE60F29
:1004A000F71F3297EE0DFF1D11821082480F591F62
:1004B000F0CF3196480F591FE0CF0196D3CFA70157
:1004C00040575E4FCF55DE4F59834883C15AD140C4
:1004D00081E6882EF701C080D180C114D10409F4CF
:1004E000BAC090900B01992009F44CC0FAE09F1219
:1004F0000EC000E011E0F80181918F01882339F0EE
:100500000E94530048EC51E040175107A1F7B60193
:1005100090E080E0C156DE4F79826882CF59D140A9
:1005200010E000E00F5F1F4FA20191010E946203E3
:10053000605DC156DE4FE881F981CF59D1406193AA
:10054000C156DE4FF983E883CF59D140B901CA01C2
:10055000611571058105910529F7060D171DF80133
:100560001082F80182918F010E945300601671067B
:10057000C1F780E20E94530080E20E9453009A94E7
:1005800090920B012FE030E090E080E041E050E0FD
:10059000022E02C0440F551F0A94E2F7B6016423ED
:1005A0007523672B29F4842B952B21503109EECF2D
:1005B000C82AD92AC094D094F701D182C0828091F0
:1005C00068008B7F80936800C080D18010E000E0DD
:1005D00090E080E021E030E0082E02C0220F331FBF
:1005E0000A94E2F72C213D21232B71F02FE030E01B
:1005F000281B390B41E050E002C0440F551F2A95DB
:10060000E2F79A01042B132B01968031910511F723
:10061000809168008D7F80936800809208010E941D
:100620005A00C09208010E945A00009308010E94DB
:100630005A00D09208010E945A00109308010E94AB
:100640005A00809168008260809368008091680001
:1006500084608093680052E0E50EF11CCF55DE4FB8
:1006600088819981C15AD140E816F90609F032CF44
:1006700094E6A916B1044CF0F501E456F109C3560D
:10068000DE4FF983E883CD59D140C356DE4FA880B1
:10069000B980CD59D140BECEF999FECF92BD81BD72
:1006A000F89A992780B50895262FF999FECF1FBA99
:1006B00092BD81BD20BD0FB6F894FA9AF99A0FBE8B
:1006C00001960895052E97FB1EF400940E9479036D
:1006D00057FD07D00E94810307FC03D04EF40C9411
:1006E000790350954095309521953F4F4F4F5F4F7F
:1006F000089590958095709561957F4F8F4F9F4F8E
:100700000895A1E21A2EAA1BBB1BFD010DC0AA1F52
:10071000BB1FEE1FFF1FA217B307E407F50720F06A
:10072000A21BB30BE40BF50B661F771F881F991FE5
:100730001A9469F760957095809590959B01AC012E
:0A074000BD01CF010895F894FFCF2A
:04074A000D0A000094
:00000001FF
