:100000000C9434000C9451000C9451000C94F200A8
:100010000C946F000C9451000C9451000C945100FE
:100020000C9451000C9451000C9451000C9451000C
:100030000C9451000C9451000C9451000C945100FC
:100040000C9451000C9451000C9451000C945100EC
:100050000C9451000C9451000C9451000C945100DC
:100060000C9451000C94510011241FBECFEFD8E026
:10007000DEBFCDBF11E0A0E0B1E0E0E8F5E002C0F6
:1000800005900D92AE33B107D9F721E0AEE3B1E0B0
:1000900001C01D92A634B207E1F70E948D010C94B5
:1000A000BE020C9400009091C00095FFFCCF80939D
:1000B000C60008950F931F93CF93DF93EC018C013B
:1000C00008531F4F8991882329F00E945300C017BD
:1000D000D107C1F7DF91CF911F910F9108951F9222
:1000E0000F920FB60F9211242F933F934F935F936C
:1000F0006F937F938F939F93AF93BF93EF93FF93F0
:1001000035995FC08FE79BEB0197F1F700C00000C6
:10011000A895EFE7FBEB3197F1F700C00000A89539
:1001200035994FC086E190E0EFE3FCE93197F1F7B4
:1001300000C00000A8950197B9F7359B1FC08CEF50
:1001400093E00E948E02682F6B7F8CEF93E00E94F9
:1001500096028CEF93E00E948E02682F6F7B8CEFEB
:1001600093E00E94960288E199E00FB6F894A89572
:10017000809360000FBE90936000FFCF299A289A69
:1001800086E190E0EFE3FCE93197F1F700C0000071
:10019000A8950197B9F73599DCCF789487E48093D7
:1001A00042011092410181E08093400180916B00F7
:1001B000806180936B00809141018111CACFA89525
:1001C000FACFFF91EF91BF91AF919F918F917F9166
:1001D0006F915F914F913F912F910F900FBE0F90B4
:1001E0001F9018951F920F920FB60F9211242F9304
:1001F0003F934F938F939F931C9983C080916B0083
:100200008F7E80936B0080914001813009F047C060
:1002100016BC17BC82E085BD8091440190914501D8
:1002200097FD01969595879587BDA99BFECF8FEF8A
:1002300085BB2C9A87B590914401890F87BDA99BF6
:10024000FECF8FEF85BB249A87B590914401890F2B
:1002500087BDA99BFECF8FEF85BB27E030E04FEF36
:1002600080914201082E000C990B022E02C0959538
:1002700087950A94E2F780FF4EC02C9A87B590913B
:100280004401890F87BDA99BFECF45BB2150310991
:1002900038F724982C9881E08093410115BC809117
:1002A0004001823071F516BC17BC85BD80914401B8
:1002B0009091450197FD01969595879587BDA99BDE
:1002C000FECF8FEF85BB88E090E04FEF27B53091F0
:1002D0004401230F27BDA99BFECF45BB20913F01C1
:1002E000220F330B20933F011C9B05C020913F013F
:1002F000216020933F01019749F715BC81E080936D
:100300003E019F918F914F913F912F910F900FBE82
:100310000F901F9018952C98B1CFCF93DF93CDB746
:10032000DEB72C970FB6F894DEBF0FBECDBFA895F1
:1003300084B7877F84BF809160008861809360006C
:100340001092600080917C00806480937C0085B76F
:100350008F7E85BF14B817B81AB88FEF85B988B9E2
:100360008BB98FEF93E00E948E02182F80EF810FE0
:10037000803E40F48EEF93E00E948E02181302C07C
:100380001093660086EF93E00E948E02182F8F3C38
:100390008CF082337CF487EF93E00E948E02181376
:1003A00009C0812F110F990B88539F4F90934501DE
:1003B00080934401809168008260809368008091FE
:1003C0006C00806280936C008091680081608093F3
:1003D000680080916B00806180936B002C9803E033
:1003E00004B985B18C7F85B978941092C1001092C0
:1003F000C50080E18093C40042E0F42EF092C0007A
:1004000088E18093C10016E01093C2008CEF93E066
:100410000E948E02873FC9F140F48D3B99F18D3DDA
:10042000B9F18D3A39F484E02AC08E3F39F1A8F54C
:100430008D3F81F16FEF8CEF93E00E9496028091E7
:100440004301873021F480E091E00E945A0085E169
:1004500091E00E945A0089E391E00E945A0032E044
:10046000832E912CA12CB12C8E010F5F1F4F780190
:100470008091C00087FD13C0A895FACF81E08093DA
:100480004301D8CFF0924301D5CF00934301D2CF9F
:1004900085E0F5CF10934301CDCF87E0F0CF809179
:1004A000C600F8018D3029F081938F010E9453001E
:1004B000DFCF1082F701C12CD12C760111911123CD
:1004C000A9F0AAE0B0E0A70196010E94A402C12E03
:1004D000110FDD08EE08FF08C60ED71EE81EF91E34
:1004E00080E3C81AD108E108F108E8CFD501C401BA
:1004F000880F991FAA1FBB1F8C159D05AE05BF0550
:1005000039F482E191E00E945A0046015701ACCFD4
:100510008FE30E94530075016401F7CFF999FECF74
:1005200092BD81BDF89A992780B50895262FF99933
:10053000FECF1FBA92BD81BD20BD0FB6F894FA9AC6
:10054000F99A0FBE019608950E94AF02A59F900DE3
:10055000B49F900DA49F800D911D11240895A29F1A
:10056000B001B39FC001A39F700D811D1124911D87
:10057000B29F700D811D1124911D0895F894FFCF35
:1005800050726F6772616D20726573746172746509
:10059000642E0D0A004D756C7469706C79206E754F
:1005A0006D626572206279203220616E6420656E12
:0E05B0007465722069740D0A00320D0A000095
:00000001FF
