:100000000C9494000C94BC000C94BC000C941D0542
:100010000C9451040C94BC000C94BC000C94BC00D7
:100020000C94BC000C94BC000C94BC000C94BC0060
:100030000C94BC000C94BC000C94BC000C94BC0050
:100040000C94AF030C94BC000C941F040C94F903A3
:100050000C94BC000C94BC000C94BC000C94BC0030
:100060000C94BC000C94BC0007634236B79BD8A725
:100070001A39685618AEBAAB558C1D3CB7CC5763CD
:10008000BD6DEDFD753EF6177231BF000000803F7B
:1000900008000000BE922449123EABAAAA2ABECD97
:1000A000CCCC4C3E00000080BEABAAAAAA3E000009
:1000B0000000BF000000803F000000000008417801
:1000C000D3BB4387D1133D190E3CC3BD4282AD2B38
:1000D0003E68EC8276BED98FE1A93E4C80EFFFBE30
:1000E00001C4FF7F3F00000000004E414E494E49D1
:1000F0005459494E46CDCCCC3D0AD7233C17B7D1F5
:100100003877CC2B329595E6241FB14F0A0000209A
:10011000410000C84200401C4620BCBE4CCA1B0E19
:100120005AAEC59D7400B80511241FBECFEFD8E0AC
:10013000DEBFCDBF22E0ACEAB1E001C01D92AC351C
:10014000B207E1F711E0A0E0B1E0EAEBFBE102C0A9
:1001500005900D92AC3AB107D9F710E0C4E9D0E0B0
:1001600004C02197FE010E94D50DC339D107C9F7FC
:100170000E94E5050C94DB0D0C940000AF92BF9239
:10018000CF92DF92EF92FF920F931F93CF93DF9363
:100190006C017B018B01040F151FEB015E01AE1892
:1001A000BF08C017D10759F06991D601ED91FC91B4
:1001B0000190F081E02DC6010995892B79F7C501E1
:1001C000DF91CF911F910F91FF90EF90DF90CF9033
:1001D000BF90AF900895FC01538D448D252F30E0E2
:1001E000842F90E0821B930B541710F0CF96089544
:1001F00001970895FC01918D828D981761F0A28D71
:10020000AE0FBF2FB11D5D968C91928D9F5F9F7336
:10021000928F90E008958FEF9FEF0895FC01918DEC
:10022000828D981731F0828DE80FF11D858D90E059
:1002300008958FEF9FEF0895FC01918D228D892FF6
:1002400090E0805C9F4F821B91098F7399270895DE
:10025000FC01A48DA80FB92FB11DA35ABF4F2C913B
:10026000848D90E001968F739927848FA689B78932
:100270002C93A089B1898C91837080648C93938D29
:10028000848D981306C00288F389E02D80818F7DCC
:1002900080830895EF92FF920F931F93CF93DF9384
:1002A000EC0181E0888F9B8D8C8D98131AC0E889B2
:1002B000F989808185FF15C09FB7F894EE89FF8981
:1002C0006083E889F98980818370806480839FBF1F
:1002D00081E090E0DF91CF911F910F91FF90EF901F
:1002E0000895F62E0B8D10E00F5F1F4F0F7311272F
:1002F000E02E8C8D8E110CC00FB607FCFACFE8896A
:10030000F989808185FFF5CFCE010E942801F1CFC8
:10031000EB8DEC0FFD2FF11DE35AFF4FF0829FB7DD
:10032000F8940B8FEA89FB8980818062CFCFCF93CD
:10033000DF93EC01888D8823B9F0AA89BB89E8890D
:10034000F9898C9185FD03C0808186FD0DC00FB6B3
:1003500007FCF7CF8C9185FFF2CF808185FFEDCF31
:10036000CE010E942801E9CFDF91CF910895FC01D1
:1003700001900020E9F73197AF01481B590BBC01F0
:100380008DEB91E00C94BE00009711F00C94B70136
:1003900090E080E008958F929F92AF92BF920F936A
:1003A0001F93CF93DF93CDB7DEB7A1970FB6F89425
:1003B000DEBF0FBECDBF19A2423008F44AE08E0165
:1003C0000F5D1F4F842E912CB12CA12CA5019401FF
:1003D0000E94B30DE62FB901CA01EA30D4F4E05D02
:1003E000D801EE938D01232B242B252B79F7CD01FA
:1003F0000E94C401A1960FB6F894DEBF0FBECDBF18
:10040000DF91CF911F910F91BF90AF909F908F90F0
:100410000895E95CE5CF4F925F926F927F928F9241
:100420009F92AF92BF92CF92DF92EF92FF920F9383
:100430001F93CF93DF936B017C01B42EDC01CB01C2
:10044000009720E8A2072FE7B207C9F482E191E004
:100450000E94C4018CEF93E00E94AF0A682F6F7B6B
:100460008CEF93E00E94B70A88E199E00FB6F89408
:10047000A895809360000FBE90936000FFCF009717
:1004800020E8A2072FEFB207C9F486E291E00E94AC
:10049000C4018CEF93E00E94AF0A682F6F7B8CEF52
:1004A00093E00E94B70A88E199E00FB6F894A89506
:1004B000809360000FBE90936000FFCF0097A1056E
:1004C000B105C9F48AE391E00E94C4018CEF93E086
:1004D0000E94AF0A682F6F7B8CEF93E00E94B70AEF
:1004E00088E199E00FB6F894A895809360000FBE5C
:1004F00090936000FFCF0097A105B048C9F48EE447
:1005000091E00E94C4018CEF93E00E94AF0A682F33
:100510006F7B8CEF93E00E94B70A88E199E00FB6F9
:10052000F894A895809360000FBE90936000FFCF71
:1005300020E030E0A901C7010E9488091BE287FF83
:1005400005C0F7FAF094F7F8F0941DE2D0E0C0E0AF
:1005500020E030E040E251E4C701B6010E94240CE3
:1005600087FD0CC020E030E040E251E4C701B60155
:100570000E94830B6B017C012196EACF20E030E0E2
:1005800040E251E4C701B6010E948809181664F0E0
:1005900020E030E040E251E4C701B6010E94EE09DC
:1005A0006B017C012197EACF1D3221F4F7FAF09418
:1005B000F7F8F094A7019601C701B6010E94790CE3
:1005C0008823C1F182E691E00E94B7012097E9F00B
:1005D00065E48DEB91E00E944A016E01DD0FEE08AB
:1005E000FF084AE0C701B601F7FE0DC06DE28DEBD2
:1005F00091E00E944A0166277727CB016C197D099B
:100600008E099F094AE00E94CB016DE08DEB91E0DD
:10061000DF91CF911F910F91FF90EF90DF90CF90DE
:10062000BF90AF909F908F907F906F905F904F9012
:100630000C944A0126013701E89477F82FEF3FEF39
:100640004FE75FE7C301B2010E94790C81110DC031
:100650002FEF3FEF4FE75FE7C301B2010E94880928
:1006600018161CF486E691E0AFCF2FEF3FEF4FE76F
:100670005FE4C701B6010E94240C18161CF48AE638
:1006800091E0A2CF2FEF3FEF4FE75FECC701B6013C
:100690000E94880987FDF3CF20E030E0A901C7015F
:1006A000B6010E94880987FF09C06DE28DEB91E0D9
:1006B0000E944A01F7FAF094F7F8F0941B2D60E0DD
:1006C00070E080E09FE300E020E030E040E251E4B1
:1006D0000E94830B0F5F0B15B8F3A70196010E94D0
:1006E000170B6B017C010E94F50B4B015C010E9412
:1006F0008D099B01AC01C701B6010E94160B6B016D
:100700007C014AE0C501B4010E94CB016EE28DEB91
:1007100091E00E944A01115008F458CF20E030E0E7
:1007200040E251E4C701B6010E94EE094B015C01B1
:100730000E94F50B6B01F12CE12C4AE0C701B601D8
:100740000E94CB01C701B6010E948D099B01AC013B
:10075000C501B4010E94160B6B017C01DCCF1F9216
:100760000F920FB60F9211242F933F938F939F9365
:10077000AF93BF938091B9019091BA01A091BB0151
:10078000B091BC013091B80123E0230F2D3758F50B
:100790000196A11DB11D2093B8018093B9019093DA
:1007A000BA01A093BB01B093BC018091B4019091B8
:1007B000B501A091B601B091B7010196A11DB11D7F
:1007C0008093B4019093B501A093B601B093B701A3
:1007D000BF91AF919F918F913F912F910F900FBE3D
:1007E0000F901F90189526E8230F0296A11DB11DAA
:1007F000D2CF1F920F920FB60F9211242F933F93D7
:100800004F935F936F937F938F939F93AF93BF9318
:10081000EF93FF938DEB91E00E942801FF91EF9100
:10082000BF91AF919F918F917F916F915F914F9108
:100830003F912F910F900FBE0F901F9018951F9210
:100840000F920FB60F9211242F938F939F93EF93D4
:10085000FF93E091CD01F091CE018081E091D30131
:10086000F091D40182FD1BC090818091D6018F5FF1
:100870008F732091D701821741F0E091D601F0E00B
:10088000E354FE4F958F8093D601FF91EF919F9196
:100890008F912F910F900FBE0F901F901895808110
:1008A000F4CF1F920F920FB60F9211242F933F9304
:1008B0004F935F936F937F938F939F93AF93BF9368
:1008C000EF93FF933599A8C02FE788E391E021507B
:1008D00080409040E1F700C00000A89535999CC089
:1008E0002FE782E392E0215080409040E1F700C082
:1008F0000000A8952FE782E392E0215080409040CD
:10090000E1F700C00000A8952FE782E392E02150B4
:1009100080409040E1F700C00000A8952FE782E3F7
:1009200092E0215080409040E1F700C00000A8957F
:100930002FE782E392E0215080409040E1F700C031
:100940000000A895359B1FC08CEF93E00E94AF0A72
:10095000682F6B7F8CEF93E00E94B70A8CEF93E0D7
:100960000E94AF0A682F6F7B8CEF93E00E94B70A5A
:1009700088E199E00FB6F894A895809360000FBEC7
:1009800090936000FFCF299A289A2FE782E392E0A4
:10099000215080409040E1F700C00000A8952FE76B
:1009A00082E392E0215080409040E1F700C00000D7
:1009B000A8952FE782E392E0215080409040E1F734
:1009C00000C00000A8952FE782E392E0215080400C
:1009D0009040E1F700C00000A8952FE782E392E085
:1009E000215080409040E1F700C00000A895359963
:1009F000B5CF789487E48093B0011092AF0181E085
:100A00008093AE0180916B00806180936B00809138
:100A1000AF018823E1F3A2CFFF91EF91BF91AF9196
:100A20009F918F917F916F915F914F913F912F9106
:100A30000F900FBE0F901F9018951F920F920FB638
:100A40000F9211242F933F934F938F939F931C9951
:100A500083C080916B008F7E80936B008091AE018C
:100A6000813009F047C016BC17BC82E085BD80917B
:100A7000B2019091B30197FD01969595879587BD39
:100A8000A99BFECF8FEF85BB2C9A87B59091B201C1
:100A9000890F87BDA99BFECF8FEF85BB249A87B5B1
:100AA0009091B201890F87BDA99BFECF8FEF85BBC7
:100AB00027E030E04FEF8091B001082E000C990B39
:100AC000022E02C0959587950A94E2F780FF4EC0EA
:100AD0002C9A87B59091B201890F87BDA99BFECF53
:100AE00045BB2150310938F724982C9881E0809338
:100AF000AF0115BC8091AE01823071F516BC17BCF8
:100B000085BD8091B2019091B30197FD01969595B5
:100B1000879587BDA99BFECF8FEF85BB88E090E0CE
:100B20004FEF27B53091B201230F27BDA99BFECF10
:100B300045BB2091AD01220F330B2093AD011C9BCF
:100B400005C02091AD0121602093AD01019749F7C7
:100B500015BC81E08093AC019F918F914F913F91A3
:100B60002F910F900FBE0F901F9018952C98B1CF1A
:100B7000EDEBF1E01382128288EE93E0A0E0B0E0AA
:100B800084839583A683B78384E091E091838083F7
:100B900085EC90E09587848784EC90E09787868742
:100BA00080EC90E0918B808B81EC90E0938B828B3A
:100BB00082EC90E0958B848B86EC90E0978B868B13
:100BC000118E128E138E148E0895CF93DF93CDB7AE
:100BD000DEB7A0970FB6F894DEBF0FBECDBFA895C5
:100BE00084B7877F84BF80916000886180936000B4
:100BF0001092600080917C00806480937C0085B7B7
:100C00008F7E85BF14B817B81AB88FEF85B988B929
:100C10008BB98FEF93E00E94AF0A182F80EF810FFE
:100C2000803E40F48EEF93E00E94AF0A181302C09A
:100C30001093660086EF93E00E94AF0A182F8F3C56
:100C40008CF082337CF487EF93E00E94AF0A181394
:100C500009C0812F110F990B88539F4F9093B301B7
:100C60008093B201809168008260809368008091D7
:100C70006C00806280936C0080916800816080933A
:100C8000680080916B00806180936B002C9884B128
:100C9000836084B9299828987894E091CD01F091E7
:100CA000CE0102E00083E091C901F091CA011082F7
:100CB000E091CB01F091CC0180E180831092D501CD
:100CC000E091D101F091D20116E01083E091CF01C3
:100CD000F091D001808180618083E091CF01F0911B
:100CE000D001808188608083E091CF01F091D001B4
:100CF000808180688083E091CF01F091D001808174
:100D00008F7D80838CEF93E00E94AF0A873FA9F12B
:100D100040F48D3B79F18D3D91F18D3A39F484E0C9
:100D200026C08E3F19F180F58D3F59F16FEF8CEFA2
:100D300093E00E94B70AA895809160008861809333
:100D400060008BE4809360008091B101873021F4D2
:100D50008EE691E00E94C4018091B1018630B1F429
:100D600083E891E00E94C401A895FECF81E08093C2
:100D7000B101DCCF0093B101D9CF83E0F8CF85E09A
:100D8000F6CF1093B101D2CF87E0F1CF81508230FE
:100D900008F08CC08EE891E00E94C40110E000E0F1
:100DA0003BE4E32EF12C8DEB91E00E941C01892B9A
:100DB00009F070C00F5F1F4FA89501348FE118072D
:100DC0002CF091E0E91AF10810E000E0E114F104E0
:100DD00051F7E0CF8DEB91E00E94FA00A301920160
:100DE000B701C8010E94290C5B016C0144E00E941C
:100DF0000B0220E030E040E85FE3C301B2010E9453
:100E0000240C18160CF4FEC020E030E040E85FE34C
:100E1000B501C6010E94240C181674F49501A601B0
:100E2000B701C8010E94160B20E030E040E85FE304
:100E30000E94880987FD19C020E030E040E85FE3A8
:100E4000B501C6010E94880987FFDCC09701A8018F
:100E5000B501C6010E94160B2DEC3CEC4CEC5DE399
:100E60000E94240C18160CF0CDC08CEF93E00E9469
:100E7000AF0A682F6F7B8CEF93E00E94B70A88E17E
:100E800099E00FB6F894A895809360000FBE9093F8
:100E90006000FFCF8DEB91E00E94FA008F7D8235DC
:100EA00009F078CF83E291E00E94C40185E991E0E6
:100EB0000E94C401A89584B7877F84BF8091600099
:100EC000886180936000109260008DEB91E00E9439
:100ED0009701FE0131966F0110E000E07F012FB70E
:100EE000F8948091B9019091BA01A091BB01B091A1
:100EF000BC012FBF8093C5019093C601A093C70189
:100F0000B093C8018DEB91E00E94FA0097FF7DC07D
:100F10002FB7F8948091B9019091BA01A091BB01CB
:100F2000B091BC012FBF4091C5015091C6016091A5
:100F3000C7017091C801841B950BA60BB70B40919C
:100F4000C1015091C2016091C3017091C401841725
:100F50009507A607B707B0F2A89580916000886151
:100F6000809360008BE480936000F701E00FF11F35
:100F70001082C7010E94C401C7010E9413087B01AF
:100F80008C0183E291E00E94C40146E0B701C801F0
:100F90000E940B0220E030E0A901B701C8010E94C5
:100FA0008809412C512C90E4692E762C87FD20C0B5
:100FB0002FEF36EE4BED5EE2B701C8010E94240C24
:100FC000181684F429EF32E045E150E5B701C80175
:100FD0000E948809412C512C20EC622E2FE3722EA6
:100FE00087FD06C0412C512C80E4682E8FE3782EBB
:100FF0008DEB91E00E941C01892B09F0EBCEA895A6
:101000005701680175018601F3CF8D30910509F410
:10101000A3CFF60181936F010F5F1F4F04311105BC
:1010200009F05DCF99CF662777270C941708B0E0B9
:10103000A0E0EDE1F8E00C94D60A5C017B016115BB
:10104000710519F0DB018D939C9385010F5F1F4F94
:10105000F501D0818D2F90E00E9467096C01892BEA
:10106000B9F5DD32B9F50F5F1F4FD5011196DC914F
:10107000C1E05801F1E0AF1AB10843E050E062EF7F
:1010800070E0C5010E947009892B69F5680182E052
:10109000C80ED11C45E050E06DEE70E0C6010E9424
:1010A0007009892B21F4680197E0C90ED11CE11465
:1010B000F10419F0D701CD92DC9260E070E080E895
:1010C0009FEFC111FFC060E070E080E89FE7FAC0C9
:1010D0005801BBCFDB3229F485010E5F1F4FF501AC
:1010E000D181C0E0C6CF43E050E06AEE70E0C501B8
:1010F0000E947009892BE9F0F80110E000E020E07F
:1011000030E0A9015F01B0ED8B2E8D0E89E08815CE
:10111000C8F19C2E689491F88C2F8870C2FF16C07D
:10112000811102C00F5F1F4F3196D501DC91C92D8F
:10113000E9CFE114F10429F00E5F1F4FF70111838D
:10114000008360E070E080EC9FE7BCC0882311F072
:1011500001501109A5E0B0E00E94C50A9B01AC0155
:10116000220F331F441F551F280D311D411D511DD6
:10117000283999E93907490799E15907A8F2C66062
:101180009C2ED2CFAEEF8A1206C0C3FD3CC09C2E6F
:10119000689493F8C9CFDF7DD534A9F580818D326D
:1011A00039F4C061DF011296818162E070E006C00F
:1011B000DF018B32C1F3119661E070E080535D0175
:1011C000A61AB70A8A30F8F4E0E8CE16ECE0DE069C
:1011D0005CF4B601660F771F660F771FC60ED71E29
:1011E000CC0CDD1CC80ED11C5D01FFEFAF1ABF0A8D
:1011F0008C9180538A30A8F1C4FF03C0D194C1946C
:10120000D1080C0D1D1DC1FF09C0E114F10431F01E
:1012100081E0A81AB108D701AD92BC92CA01B90108
:101220000E948D09C370C33009F490584B015C01D2
:1012300020E030E0A9010E948809882309F440C019
:10124000C1E2D1E017FF05C0119501951109C9E070
:10125000D1E06E01B8E1CB1AD10880E2E82EF12C82
:101260000FC0D501B1CFFE01259135914591549123
:101270000E191F09C501B4010E94EE094B015C0162
:10128000D501C4010E151F0574F72497F594E79452
:10129000CC16DD06A9F78A2F880F8B2F881F8F3F6A
:1012A00049F020E030E0A901C501B4010E9488099D
:1012B000811106C082E290E090935B0280935A0213
:1012C000C501B401CDB7DEB7ECE00C94F20A911180
:1012D0000C945B0A803219F089508550C8F7089544
:1012E000FB01DC014150504088F08D9181341CF0AD
:1012F0008B350CF4805E659161341CF06B350CF419
:10130000605E861B611171F3990B0895881BFCCFF9
:101310000E94CA0908F481E00895E89409C097FB87
:101320003EF490958095709561957F4F8F4F9F4FBC
:101330009923A9F0F92F96E9BB279395F695879500
:1013400077956795B795F111F8CFFAF4BB0F11F4C3
:1013500060FF1BC06F5F7F4F8F4F9F4F16C088236A
:1013600011F096E911C0772321F09EE8872F762FA0
:1013700005C0662371F096E8862F70E060E02AF0E1
:101380009A95660F771F881FDAF7880F96958795CD
:1013900097F90895990F0008550FAA0BE0E8FEEFA2
:1013A00016161706E807F907C0F012161306E40729
:1013B000F50798F0621B730B840B950B39F40A2622
:1013C00061F0232B242B252B21F408950A2609F400
:1013D000A140A6958FEF811D811D08950E94010AED
:1013E0000C94750A0E94670A38F00E946E0A20F079
:1013F000952311F00C945E0A0C94640A11240C9449
:10140000A90A0E94860A70F3959FC1F3950F50E0D8
:10141000551F629FF001729FBB27F00DB11D639FA6
:10142000AA27F00DB11DAA1F649F6627B00DA11D4C
:10143000661F829F2227B00DA11D621F739FB00DF2
:10144000A11D621F839FA00D611D221F749F332762
:10145000A00D611D231F849F600D211D822F762FFB
:101460006A2F11249F5750409AF0F1F088234AF0D8
:10147000EE0FFF1FBB1F661F771F881F9150504044
:10148000A9F79E3F510580F00C945E0A0C94A90ABE
:101490005F3FE4F3983ED4F3869577956795B795CB
:1014A000F795E7959F5FC1F7FE2B880F911D9695E5
:1014B000879597F9089599278827089597F99F6741
:1014C00080E870E060E008959FEF80EC08950024CC
:1014D0000A941616170618060906089500240A9499
:1014E00012161306140605060895092E0394000C1F
:1014F00011F4882352F0BB0F40F4BF2B11F460FFAE
:1015000004C06F5F7F4F8F4F9F4F089557FD9058D6
:10151000440F551F59F05F3F71F04795880F97FBB7
:10152000991F61F09F3F79F0879508951216130671
:101530001406551FF2CF4695F1DF08C016161706A0
:101540001806991FF1CF86957105610508940895D5
:10155000E894BB2766277727CB0197F90895F99977
:10156000FECF92BD81BDF89A992780B50895262FA8
:10157000F999FECF1FBA92BD81BD20BD0FB6F89478
:10158000FA9AF99A0FBE019608950E94070BA59F3B
:10159000900DB49F900DA49F800D911D112408956E
:1015A0002F923F924F925F926F927F928F929F9273
:1015B000AF92BF92CF92DF92EF92FF920F931F9361
:1015C000CF93DF93CDB7DEB7CA1BDB0B0FB6F89412
:1015D000DEBF0FBECDBF09942A88398848885F8452
:1015E0006E847D848C849B84AA84B984C884DF80C3
:1015F000EE80FD800C811B81AA81B981CE0FD11DA7
:101600000FB6F894DEBF0FBECDBFED010895A29FC7
:10161000B001B39FC001A39F700D811D1124911DC6
:10162000B29F700D811D1124911D08955058BB2744
:10163000AA270E942E0B0C94750A0E94670A38F0A4
:101640000E946E0A20F039F49F3F19F426F40C949E
:10165000640A0EF4E095E7FB0C945E0AE92F0E9401
:10166000860A58F3BA17620773078407950720F0B4
:1016700079F4A6F50C94A80A0EF4E0950B2EBA2F77
:10168000A02D0B01B90190010C01CA01A001112488
:10169000FF27591B99F0593F50F4503E68F11A1634
:1016A000F040A22F232F342F4427585FF3CF4695C5
:1016B00037952795A795F0405395C9F77EF41F16E7
:1016C000BA0B620B730B840BBAF09150A1F0FF0FB1
:1016D000BB1F661F771F881FC2F70EC0BA0F621F9D
:1016E000731F841F48F4879577956795B795F7958D
:1016F0009E3F08F0B0CF9395880F08F09927EE0F22
:101700009795879508950E94970B0C94750A0E94EF
:101710006E0A58F00E94670A40F029F45F3F29F0F2
:101720000C945E0A51110C94A90A0C94640A0E944C
:10173000860A68F39923B1F3552391F3951B550B52
:10174000BB27AA2762177307840738F09F5F5F4F94
:10175000220F331F441FAA1FA9F335D00E2E3AF0D3
:10176000E0E832D091505040E695001CCAF72BD0EB
:10177000FE2F29D0660F771F881FBB1F261737073C
:101780004807AB07B0E809F0BB0B802DBF01FF276E
:1017900093585F4F3AF09E3F510578F00C945E0AE3
:1017A0000C94A90A5F3FE4F3983ED4F386957795AD
:1017B0006795B795F7959F5FC9F7880F911D969527
:1017C000879597F90895E1E0660F771F881FBB1F83
:1017D000621773078407BA0720F0621B730B840B30
:1017E000BA0BEE1F88F7E09508950E948E0A88F0E4
:1017F0009F5798F0B92F9927B751B0F0E1F0660FD5
:10180000771F881F991F1AF0BA95C9F714C0B13015
:1018100091F00E94A80AB1E008950C94A80A672FDD
:10182000782F8827B85F39F0B93FCCF38695779544
:101830006795B395D9F73EF490958095709561952D
:101840007F4F8F4F9F4F08950E94CA0908F48FEF72
:101850000895FA01EE0FFF1F309621053105A1F121
:101860006115710561F48038BFE39B0749F1689405
:101870009038810561F08038BFEF9B0741F09923D4
:101880004AF5FF3FE1053105210519F1E894089477
:10189000E795D901AA2329F4AB2FBE2FF85FD0F327
:1018A00010C0FF5F70F4A695E0F7F73950F019F01B
:1018B000FF3A38F49F779F930DD00F9007FC905814
:1018C000089546F00C94640A60E070E080E89FE3BD
:1018D00008954FE79F775F934F933F932F930E9415
:1018E000290D2F913F914F915F910E94EE090C9429
:1018F000860C0E94CA09880B990B089529F416F0EA
:101900000C945E0A0C94A80A0C94640A0E948E0A35
:10191000A8F39638A0F707F80F92E8942BE33AEA79
:1019200048EB5FE70E94040A0F920F920F924DB7A7
:101930005EB70F920E94710DE8E6F0E00E94B80CCD
:101940004F915F91EF91FF91E595EE1FFF1F49F0D9
:10195000FE57E0684427EE0F441FFA95E1F74195E2
:10196000550B0E94EB0C0F9007FE0C94DF0C0895B2
:10197000DF93CF931F930F93FF92EF92DF927B0140
:101980008C01689406C0DA2EEF010E94010AFE0164
:10199000E894A5912591359145915591A6F3EF01D4
:1019A0000E942E0BFE019701A801DA9469F7DF90DF
:1019B000EF90FF900F911F91CF91DF9108959B01C0
:1019C000AC0160E070E080E89FE30C94830B0C9422
:1019D0005E0A0C94A50D0E948E0AD8F39923C9F3D0
:1019E000940F511DA3F39150504094F059F0882367
:1019F00032F0660F771F881F91505040C1F79E3F0D
:101A000051052CF7880F911D9695879597F90895A4
:101A10005F3FACF0983E9CF0BB2786957795679525
:101A2000B79508F4B1609395C1F7BB0F58F711F45F
:101A300060FFE8CF6F5F7F4F8F4F9F4FE3CF0C94D6
:101A4000A90A16F00C94A50D0C94640A68940C94E1
:101A50005E0A0E948E0AA8F39923C1F3AEF3DF93C6
:101A6000CF931F930F93FF92C92FDD2788232AF06E
:101A70002197660F771F881FDAF720E030E040E8F3
:101A80005FEB9FE3883920F0803E38F021968F7716
:101A90000E94170BE0E9F0E004C00E94170BEDEB89
:101AA000F0E00E94B80C8B01BE01EC01FB2E6F57D9
:101AB00071097595771F880B990B0E948F0928E192
:101AC00032E741E35FE30E94010AAF2D9801AE01C6
:101AD000FF900F911F91CF91DF910E942E0B0C94DC
:101AE000750AFA01DC01AA0FBB1F9B01AC01BF57AD
:101AF00028F4222733274427507820C0B75190F488
:101B0000AB2F0024469537952795011CA395D2F35A
:101B1000002071F0220F331F441FB395DAF30ED06B
:101B20000C94160B61307105A0E88A07B94630F4B1
:101B30009B01AC016627772788279078309621F0A3
:101B4000208331834283538308959F3F31F0915026
:101B500020F4879577956795B795880F911D969591
:101B6000879597F90895A1E21A2EAA1BBB1BFD01C8
:101B70000DC0AA1FBB1FEE1FFF1FA217B307E4076C
:101B8000F50720F0A21BB30BE40BF50B661F771FC4
:101B9000881F991F1A9469F76095709580959095A4
:101BA0009B01AC01BD01CF010895EE0FFF1F059011
:0A1BB000F491E02D0994F894FFCFA2
:101BBA00000000004A01BE00EB0097011C01FA0078
:101BCA000E012B7665204E756D20746F6F206C6147
:101BDA007267650D0A002D7665204E756D20746F4B
:101BEA006F206C617267650D0A002B7665204E7551
:101BFA006D20746F6F20736D616C6C0D0A002D7609
:101C0A0065204E756D20746F6F20736D616C6C0D5D
:101C1A000A006E616E00696E66006F7666000D0AD4
:101C2A0050726F6772616D20726573746172746548
:101C3A00642E000D0A5744546F75740D0A00523F02
:101C4A0020202020000D0A536369656E7469666955
:0C1C5A0063206E756D6265720D0A00005B
:00000001FF
