:100000000C9444000C946C000C946C000C94DA0377
:100010000C940E030C948D020C9436020C946C001C
:100020000C946C000C946C000C946C000C946C00A0
:100030000C946C000C945D020C946C000C946C009D
:100040000C946C000C946C000C9404020C94DE0173
:100050000C946C000C946C000C946C000C946C0070
:100060000C946C000C946C0005A84CCDB2D44EB925
:100070003836A9020C50B9918688083CA6AAAA2A4B
:10008000BE000000803F750411241FBECFEFD8E0F2
:10009000DEBFCDBF11E0A0E0B1E0EEE1F6E102C0CD
:1000A00005900D92A833B107D9F721E0A8E3B1E09C
:1000B00001C01D92A93EB207E1F710E0C4E4D0E010
:1000C00004C02197FE010E94070BC334D107C9F772
:1000D0000E94A2040C940D0B0C940000AF92BF92EE
:1000E000CF92DF92EF92FF920F931F93CF93DF9304
:1000F0006C017B018B01040F151FEB015E01AE1833
:10010000BF08C017D10759F06991D601ED91FC9154
:100110000190F081E02DC6010995892B79F7C50181
:10012000DF91CF911F910F91FF90EF90DF90CF90D3
:10013000BF90AF900895FC01538D448D252F30E082
:10014000842F90E0821B930B541710F0CF960895E4
:1001500001970895FC01918D828D981761F0A28D11
:10016000AE0FBF2FB11D5D968C91928D9F5F9F73D7
:10017000928F90E008958FEF9FEF0895FC01918D8D
:10018000828D981731F0828DE80FF11D858D90E0FA
:1001900008958FEF9FEF0895FC01918D228D892F97
:1001A00090E0805C9F4F821B91098F73992708957F
:1001B000FC01A48DA80FB92FB11DA35ABF4F2C91DC
:1001C000848D90E001968F739927848FA689B789D3
:1001D0002C93A089B1898C91837080648C93938DCA
:1001E000848D981306C00288F389E02D80818F7D6D
:1001F00080830895EF92FF920F931F93CF93DF9325
:10020000EC0181E0888F9B8D8C8D98131AC0E88952
:10021000F989808185FF15C09FB7F894EE89FF8921
:100220006083E889F98980818370806480839FBFBF
:1002300081E090E0DF91CF911F910F91FF90EF90BF
:100240000895F62E0B8D10E00F5F1F4F0F731127CF
:10025000E02E8C8D8E110CC00FB607FCFACFE8890A
:10026000F989808185FFF5CFCE010E94D800F1CFBA
:10027000EB8DEC0FFD2FF11DE35AFF4FF0829FB77E
:10028000F8940B8FEA89FB8980818062CFCF682F39
:100290008CE491E00C94FA00CF93DF93EC01888D0D
:1002A0008823B9F0AA89BB89E889F9898C9185FDF1
:1002B00003C0808186FD0DC00FB607FCF7CF8C917F
:1002C00085FFF2CF808185FFEDCFCE010E94D8005F
:1002D000E9CFDF91CF910895CF92DF92EF92FF9215
:1002E0000F931F93CF93DF938C599F4F6C018B011A
:1002F0000C591F4FD0E0C0E080E00C171D0729F417
:100300008CE790E00E94470181E09E012F5F3F4F04
:100310007901CC16DD0651F481E290E00E9447019C
:1003200034E6C316D10459F4E701E6CFC436D1054B
:1003300099F48111F9CF8AE390E00E944701E70127
:10034000CF3AD105C9F6DF91CF911F910F91FF9060
:10035000EF90DF90CF9008958111F1CF80E290E08F
:10036000ECCF0F931F93CF93DF938C010C591F4F4A
:10037000D0E0C0E08CE790E00C171D0739F080E278
:1003800090E0C436D10511F48AE390E00E94470161
:100390002196CF3AD10571F7DF91CF911F910F913F
:1003A0000895FC0101900020E9F73197AF01481B47
:1003B000590BBC018CE491E00C946E001F920F92DB
:1003C0000FB60F9211242F933F934F935F936F9328
:1003D0007F938F939F93AF93BF93EF93FF938CE49F
:1003E00091E00E94D800FF91EF91BF91AF919F9152
:1003F0008F917F916F915F914F913F912F910F90CE
:100400000FBE0F901F9018951F920F920FB60F926C
:1004100011242F938F939F93EF93FF93E0915C01AF
:10042000F0915D018081E0916201F091630182FDB4
:100430001BC09081809165018F5F8F732091660151
:10044000821741F0E0916501F0E0E45BFE4F958F8B
:1004500080936501FF91EF919F918F912F910F9064
:100460000FBE0F901F9018958081F4CF1F920F92AE
:100470000FB60F9211242F933F934F935F936F9377
:100480007F938F939F93AF93BF93EF93FF936FED02
:100490008CEF93E00E945908FF91EF91BF91AF91CB
:1004A0009F918F917F916F915F914F913F912F918C
:1004B0000F900FBE0F901F9018951F920F920FB6BE
:1004C0000F9211242F933F934F935F936F937F93DA
:1004D0008F939F93AF93BF93EF93FF93EFE6F0E07B
:1004E00080818E7F8083EDE6F0E080818460808370
:1004F00082E191E00E94D101FF91EF91BF91AF9114
:100500009F918F917F916F915F914F913F912F912B
:100510000F900FBE0F901F9018951F920F920FB65D
:100520000F9211242F933F934F935F936F937F9379
:100530008F939F93AF93BF93CF93DF93EF93FF93EB
:100540004A993CC0789480916D008B7F80936D00B8
:100550001092400110924101109242011092430109
:1005600010924401109245011092460110924701E9
:10057000C0E4D1E08CE491E00E94CC00892B31F002
:100580008CE491E00E94AA008993F4CF80E491E08A
:100590008C179D0729F00E942B088033910509F5DF
:1005A00080916F00816080936F0088EF8093850059
:1005B0008FE58093840085E080938100FF91EF9127
:1005C000DF91CF91BF91AF919F918F917F916F916B
:1005D0005F914F913F912F910F900FBE0F901F9001
:1005E00018958A3091052CF4682F90E080E00E94E5
:1005F00059088CEF93E00E945108682F6F7B8CEFB5
:1006000093E00E94590888E199E00FB6F894A89504
:10061000809360000FBE90936000FFCF1F920F92F7
:100620000FB60F9211242F933F934F935F936F93C5
:100630007F938F939F93AF93BF93EF93FF933599DE
:10064000A8C02FE788E391E0215080409040E1F777
:1006500000C00000A89535999CC02FE782E392E086
:10066000215080409040E1F700C00000A8952FE79E
:1006700082E392E0215080409040E1F700C000000A
:10068000A8952FE782E392E0215080409040E1F767
:1006900000C00000A8952FE782E392E0215080403F
:1006A0009040E1F700C00000A8952FE782E392E0B8
:1006B000215080409040E1F700C00000A895359B94
:1006C0001FC08CEF93E00E945108682F6B7F8CEF66
:1006D00093E00E9459088CEF93E00E945108682F24
:1006E0006F7B8CEF93E00E94590888E199E00FB688
:1006F000F894A895809360000FBE90936000FFCFA0
:10070000299A289A2FE782E392E021508040904076
:10071000E1F700C00000A8952FE782E392E02150A6
:1007200080409040E1F700C00000A8952FE782E3E9
:1007300092E0215080409040E1F700C00000A89571
:100740002FE782E392E0215080409040E1F700C023
:100750000000A8952FE782E392E02150804090406E
:10076000E1F700C00000A8953599B5CF789487E4EB
:1007700080933C0110923B0181E080933A0180918B
:100780006B00806180936B0080913B018823E1F3D3
:10079000A2CFFF91EF91BF91AF919F918F917F91E8
:1007A0006F915F914F913F912F910F900FBE0F90DE
:1007B0001F9018951F920F920FB60F9211242F932E
:1007C0003F934F938F939F931C9983C080916B00AD
:1007D0008F7E80936B0080913A01813009F047C091
:1007E00016BC17BC82E085BD80913E0190913F010F
:1007F00097FD01969595879587BDA99BFECF8FEFB5
:1008000085BB2C9A87B590913E01890F87BDA99B26
:10081000FECF8FEF85BB249A87B590913E01890F5B
:1008200087BDA99BFECF8FEF85BB27E030E04FEF60
:1008300080913C01082E000C990B022E02C0959568
:1008400087950A94E2F780FF4EC02C9A87B5909165
:100850003E01890F87BDA99BFECF45BB21503109C1
:1008600038F724982C9881E080933B0115BC809147
:100870003A01823071F516BC17BC85BD80913E01EE
:1008800090913F0197FD01969595879587BDA99B0E
:10089000FECF8FEF85BB88E090E04FEF27B530911A
:1008A0003E01230F27BDA99BFECF45BB20913901F7
:1008B000220F330B209339011C9B05C02091390175
:1008C000216020933901019749F715BC81E080939D
:1008D00038019F918F914F913F912F910F900FBEB3
:1008E0000F901F9018952C98B1CFECE4F1E0138293
:1008F000128288EE93E0A0E0B0E084839583A68323
:10090000B78384E091E09183808385EC90E09587C4
:10091000848784EC90E09787868780EC90E0918BC9
:10092000808B81EC90E0938B828B82EC90E0958BB6
:10093000848B86EC90E0978B868B118E128E138EB3
:10094000148E0895CF93DF93CDB7DEB764970FB6BB
:10095000F894DEBF0FBECDBFA89584B7877F84BF54
:1009600080916000886180936000109260008091A7
:100970007C00806480937C0085B78F7E85BF14B82F
:1009800017B81AB88FEF85B988B98BB98FEF93E094
:100990000E94510889838051803E48F48EEF93E095
:1009A0000E9451082981281302C02093660086EF17
:1009B00093E00E94510889838F3C9CF082338CF431
:1009C00087EF93E00E945108398138130AC0832FC2
:1009D000082E000C990B88539F4F90933F018093F2
:1009E0003E018091680082608093680080916C0075
:1009F000806280936C0080916800816080936800C1
:100A000080916B00806180936B002C9884B183602F
:100A100084B9299828987894E0915C01F0915D015F
:100A200092E09083E0915801F09159011082E09199
:100A30005A01F0915B0180E1808310926401E091A2
:100A40006001F091610126E02083E0915E01F09168
:100A50005F01808180618083E0915E01F0915F01A0
:100A6000808188608083E0915E01F0915F018081E8
:100A700080688083E0915E01F0915F0180818F7DCD
:100A800080838CEF93E00E945108873FB1F140F4DE
:100A90008D3B79F18D3D99F18D3A39F484E026C092
:100AA0008E3F19F180F58D3F61F16FEF8CEF93E090
:100AB0000E945908A8958091600088618093600029
:100AC0008CE48093600080913D01873021F487E1C0
:100AD00091E00E94D10180913D018630B1F48CE219
:100AE00091E00E94D101A895FECF81E080933D0165
:100AF000DCCF32E030933D01D8CF83E0F7CF85E003
:100B0000F5CF86E0F3CF87E0F1CF80916800846075
:100B10008093680080913D01823029F060E090E090
:100B200080E00E94590880916D00846080936D0080
:100B300084E391E00E94D1011A82198229813A81CD
:100B400080E290E02832310514F08FE590E00E94B9
:100B5000470189819A8101969A8389838536910517
:100B600069F784E391E00E94D1011A8219822981F8
:100B70003A81B901330F880B990B0E947E0920E05E
:100B800030E044E352E40E94D4084B015C0181E070
:100B900090E09C8B8B8BC12CD12C7601A8952B8956
:100BA0003C892230310509F098C020ED3FE049EC46
:100BB00050E4C501B4010E940A0A2B013C01AC01BA
:100BC0009B010E9468080E94770A20E030E040E024
:100BD0005FE30E940A0A20E030E040EA52E40E940B
:100BE0000A0A0E94460922243324261A370A20E0E2
:100BF00030E040E05FE3C301B2010E9468089B015E
:100C0000AC010E9468080E94770A20E030E040E0D2
:100C10005FE30E940A0A20E030E040EA52E40E94CA
:100C20000A0A0E94460922273327261B370B3C87D6
:100C30002B873B8930FD32C02B893C89B901330FAA
:100C4000880B990B0E947E092B013C0120ED3FE0AF
:100C500049EC50E4C501B4010E940A0AA3019201C3
:100C60000E940A0A0E94770AA30192010E94D408F6
:100C700020E030E040EA52E40E940A0A0E9446095D
:100C8000072E000C880B990B0E947E099B01AC017A
:100C9000C701B6010E9467086B017C018B899C89A2
:100CA00001969C8B8B8B8E9709F078CF90E080E03B
:100CB0000E9451088A3008F055C1E82FF0E0ED5944
:100CC000F94F0C94070BAB07CB07D407DB07E307FF
:100CD000EB07EF07F70701080F088B899C8904973A
:100CE00009F049C020ED3FE049EC50E4C501B401F2
:100CF0000E940A0A2B013C0120E030E040E850E469
:100D00000E940A0A0E94770A20E030E040E85EE391
:100D10000E940A0A20E030E040EA52E40E940A0AF7
:100D20000E94460900271127061B170B20E030E020
:100D300040E05FE3C301B2010E94680820E030E0B8
:100D400040E850E40E940A0A0E94770A20E030E05E
:100D500040E85EE30E940A0A20E030E040EA52E404
:100D60000E940A0A0E94460922273327261B370BB6
:100D70003E872D875ECF8B899C89069709F04BC0F3
:100D800020ED3FE049EC50E4C501B4010E940A0A9D
:100D90002B013C0120E030E040EC50E40E940A0AC4
:100DA0000E94770A20E030E040EC50E40E94D40832
:100DB00020E030E040EA52E40E940A0A0E9446091C
:100DC00022273327261B370B3C832B8320E030E080
:100DD00040E05FE3C301B2010E94680820E030E018
:100DE00040EC50E40E940A0A0E94770A20E030E0BA
:100DF00040EC50E40E94D40820E030E040EA52E4A5
:100E00000E940A0A0E94460922273327261B370B15
:100E1000388B2F870ECF8B899C89089709F04BC0A0
:100E200020ED3FE049EC50E4C501B4010E940A0AFC
:100E30002B013C0120E030E040E051E40E940A0A2E
:100E40000E94770A20E030E040E05EE30E940A0A58
:100E500020E030E040EA52E40E940A0A0E9446097B
:100E600022273327261B370B3E832D8320E030E0DB
:100E700040E05FE3C301B2010E94680820E030E077
:100E800040E051E40E940A0A0E94770A20E030E024
:100E900040E05EE30E940A0A20E030E040EA52E4CB
:100EA0000E940A0A0E94460922273327261B370B75
:100EB0003A8B298BBECE8B899C890A9709F0B9CED3
:100EC00020ED3FE049EC50E4C501B4010E940A0A5C
:100ED0002B013C0120E030E040E251E40E940A0A8C
:100EE0000E94770A20E030E040E251E40E94D408FA
:100EF00020E030E040EA52E40E940A0A0E944609DB
:100F000022273327261B370B38872F8320E030E03A
:100F100040E05FE3C301B2010E94680820E030E0D6
:100F200040E251E40E940A0A0E94770A20E030E081
:100F300040E251E40E94D40820E030E040EA52E46C
:100F40000E940A0A0E94460922273327261B370BD4
:100F50003A8729876ECEC701B6010E944609CB01A8
:100F60000E94B1013FEF89EF90E031508040904006
:100F7000E1F700C0000084E391E00E94D101A89550
:100F800029813A812F5F3F4F3A8329832D323105E2
:100F900009F0EDCDEACDC701B6010E944609CB01AB
:100FA000B1010E946C01DECFC701B6010E94460963
:100FB000CB01B801F6CFC701B6010E944609CB01AB
:100FC0006B817C81EECFC701B6010E944609CB013F
:100FD0006D817E81E6CFC101800F911FC1CFC1011C
:100FE000800F911F2B813C81820F931FB9CFC101CC
:100FF000800F911F2B813C81820F931F2D813E8199
:10100000F3CFC101800F911F2B813C81820F931F71
:101010002D813E81820F931F2F813885E5CF8B85EF
:101020009C852D853E85820F931F2F853889820FE1
:10103000931F29893A89820F931F29853A85820F48
:10104000931F9C8B8B8BC701B6010E944609CB0175
:101050006B897C89A6CFFC0188279927E894219188
:101060002032E9F3293010F02E30C8F32B3241F052
:101070002D3239F4689404C00E944908820F911DF2
:10108000219120532A30C0F31EF4909581959F4FF3
:1010900008957AE0979F902D879F802D910D1124C0
:1010A0000895F999FECF92BD81BDF89A992780B530
:1010B0000895262FF999FECF1FBA92BD81BD20BD9C
:1010C0000FB6F894FA9AF99A0FBE019608955058FF
:1010D000BB27AA270E947F080C94D0090E94C2094E
:1010E00038F00E94C90920F039F49F3F19F426F422
:1010F0000C94BF090EF4E095E7FB0C94B909E92FB5
:101100000E94E10958F3BA1762077307840795072D
:1011100020F079F4A6F50C94030A0EF4E0950B2E5A
:10112000BA2FA02D0B01B90190010C01CA01A00139
:101130001124FF27591B99F0593F50F4503E68F194
:101140001A16F040A22F232F342F4427585FF3CFD5
:10115000469537952795A795F0405395C9F77EF4A6
:101160001F16BA0B620B730B840BBAF09150A1F0EF
:10117000FF0FBB1F661F771F881FC2F70EC0BA0F75
:10118000621F731F841F48F4879577956795B795FD
:10119000F7959E3F08F0B0CF9395880F08F09927F8
:1011A000EE0F9795879508950E94E8080C94D00952
:1011B0000E94C90958F00E94C20940F029F45F3F1B
:1011C00029F00C94B90951110C94040A0C94BF092C
:1011D0000E94E10968F39923B1F3552391F3951B1C
:1011E000550BBB27AA2762177307840738F09F5F48
:1011F0005F4F220F331F441FAA1FA9F335D00E2EB5
:101200003AF0E0E832D091505040E695001CCAF721
:101210002BD0FE2F29D0660F771F881FBB1F2617E4
:1012200037074807AB07B0E809F0BB0B802DBF01BB
:10123000FF2793585F4F3AF09E3F510578F00C948A
:10124000B9090C94040A5F3FE4F3983ED4F3869501
:1012500077956795B795F7959F5FC9F7880F911DAB
:101260009695879597F90895E1E0660F771F881F97
:10127000BB1F621773078407BA0720F0621B730B4A
:10128000840BBA0BEE1F88F7E09508950E944D0974
:101290006894B1110C94040A08950E94E90988F039
:1012A0009F5798F0B92F9927B751B0F0E1F0660F2A
:1012B000771F881F991F1AF0BA95C9F714C0B1306B
:1012C00091F00E94030AB1E008950C94030A672F7D
:1012D000782F8827B85F39F0B93FCCF3869577959A
:1012E0006795B395D9F73EF4909580957095619583
:1012F0007F4F8F4F9F4F0895E89409C097FB3EF4AE
:1013000090958095709561957F4F8F4F9F4F992352
:10131000A9F0F92F96E9BB279395F69587957795D0
:101320006795B795F111F8CFFAF4BB0F11F460FF90
:101330001BC06F5F7F4F8F4F9F4F16C0882311F0E8
:1013400096E911C0772321F09EE8872F762F05C0FC
:10135000662371F096E8862F70E060E02AF09A9597
:10136000660F771F881FDAF7880F9695879597F98C
:10137000089597F99F6780E870E060E008959FEF17
:1013800080EC089500240A9416161706180609061C
:10139000089500240A9412161306140605060895EB
:1013A000092E0394000C11F4882352F0BB0F40F473
:1013B000BF2B11F460FF04C06F5F7F4F8F4F9F4FB3
:1013C000089557FD9058440F551F59F05F3F71F035
:1013D0004795880F97FB991F61F09F3F79F087959C
:1013E0000895121613061406551FF2CF4695F1DF25
:1013F00008C0161617061806991FF1CF86957105B5
:10140000610508940895E894BB2766277727CB01E8
:1014100097F908950E941D0A0C94D0090E94C209F0
:1014200038F00E94C90920F0952311F00C94B909F5
:101430000C94BF0911240C94040A0E94E10970F372
:10144000959FC1F3950F50E0551F629FF001729F69
:10145000BB27F00DB11D639FAA27F00DB11DAA1F78
:10146000649F6627B00DA11D661F829F2227B00DC5
:10147000A11D621F739FB00DA11D621F839FA00D50
:10148000611D221F749F3327A00D611D231F849FA0
:10149000600D211D822F762F6A2F11249F575040F7
:1014A0009AF0F1F088234AF0EE0FFF1FBB1F661F72
:1014B000771F881F91505040A9F79E3F510580F03B
:1014C0000C94B9090C94040A5F3FE4F3983ED4F3FA
:1014D000869577956795B795F795E7959F5FC1F7DF
:1014E000FE2B880F911D9695879597F908959F93E8
:1014F0000E94810A0F9007FCEE5F0C94AA0A0C94DC
:10150000BF090E94E909D8F3E894E0E0BB279F57A0
:10151000F0F02AED3FE049EC06C0EE0FBB0F661F6E
:10152000771F881F28F0B23A62077307840728F0F4
:10153000B25A620B730B840BE3959A9572F780385D
:1015400030F49A95BB0F661F771F881FD2F790481B
:101550000C94C00AEF93E0FF07C0A2EA2AED3FE037
:1015600049EC5FEB0E947F080E94D0090F90039422
:1015700001FC9058E8E6F0E00C94CC0A9F3F31F073
:10158000915020F4879577956795B795880F911DB1
:101590009695879597F908959F938F937F936F936F
:1015A000FF93EF939B01AC010E940A0AEF91FF9118
:1015B0000E94E00A2F913F914F915F910C940A0A8B
:1015C000DF93CF931F930F93FF92EF92DF927B01F4
:1015D0008C01689406C0DA2EEF010E941D0AFE01FC
:1015E000E894A5912591359145915591A6F3EF0188
:1015F0000E947F08FE019701A801DA9469F7DF9045
:10160000EF90FF900F911F91CF91DF910895EE0F12
:0E161000FF1F0590F491E02D0994F894FFCF90
:10161E0000000000FA006E009B004C01CC00AA00F6
:10162E00BE0074657374000D0A50726F6772616D3F
:10163E00207265737461727465642E000D0A5744CE
:08164E00546F75740D0A0000D1
:00000001FF
