:100000000C9434000C9451000C9451000C94F200A8
:100010000C946F000C9451000C9451000C945100FE
:100020000C9451000C9451000C9451000C9451000C
:100030000C9451000C9451000C9451000C945100FC
:100040000C9451000C9451000C9451000C945100EC
:100050000C9451000C9451000C9451000C945100DC
:100060000C9451000C94510011241FBECFEFD8E026
:10007000DEBFCDBF11E0A0E0B1E0ECEFF4E002C0E4
:1000800005900D92A634B107D9F721E0A6E4B1E0BE
:1000900001C01D92AE34B207E1F70E948D010C94AD
:1000A0007C020C9400009091C00095FFFCCF8093DF
:1000B000C60008950F931F93CF93DF93EC018C013B
:1000C00008531F4F8991882329F00E945300C017BD
:1000D000D107C1F7DF91CF911F910F9108951F9222
:1000E0000F920FB60F9211242F933F934F935F936C
:1000F0006F937F938F939F93AF93BF93EF93FF93F0
:1001000035995FC08FE79BEB0197F1F700C00000C6
:10011000A895EFE7FBEB3197F1F700C00000A89539
:1001200035994FC086E190E0EFE3FCE93197F1F7B4
:1001300000C00000A8950197B9F7359B1FC08CEF50
:1001400093E00E946602682F6B7F8CEF93E00E9421
:100150006E028CEF93E00E946602682F6F7B8CEF3B
:1001600093E00E946E0288E199E00FB6F894A8959A
:10017000809360000FBE90936000FFCF299A289A69
:1001800086E190E0EFE3FCE93197F1F700C0000071
:10019000A8950197B9F73599DCCF789487E48093D7
:1001A0004A011092490181E08093480180916B00DF
:1001B000806180936B00809149018111CACFA8951D
:1001C000FACFFF91EF91BF91AF919F918F917F9166
:1001D0006F915F914F913F912F910F900FBE0F90B4
:1001E0001F9018951F920F920FB60F9211242F9304
:1001F0003F934F938F939F931C9983C080916B0083
:100200008F7E80936B0080914801813009F047C058
:1002100016BC17BC82E085BD80914C0190914D01C8
:1002200097FD01969595879587BDA99BFECF8FEF8A
:1002300085BB2C9A87B590914C01890F87BDA99BEE
:10024000FECF8FEF85BB249A87B590914C01890F23
:1002500087BDA99BFECF8FEF85BB27E030E04FEF36
:1002600080914A01082E000C990B022E02C0959530
:1002700087950A94E2F780FF4EC02C9A87B590913B
:100280004C01890F87BDA99BFECF45BB2150310989
:1002900038F724982C9881E08093490115BC80910F
:1002A0004801823071F516BC17BC85BD80914C01A8
:1002B00090914D0197FD01969595879587BDA99BD6
:1002C000FECF8FEF85BB88E090E04FEF27B53091F0
:1002D0004C01230F27BDA99BFECF45BB20914701B1
:1002E000220F330B209347011C9B05C0209147012F
:1002F000216020934701019749F715BC81E0809365
:1003000046019F918F914F913F912F910F900FBE7A
:100310000F901F9018952C98B1CFA89584B7877F20
:1003200084BF8091600088618093600010926000BB
:1003300080917C00806480937C0085B78F7E85BF30
:1003400014B817B81AB88FEF85B988B98BB98FEF81
:1003500093E00E946602C82F80EF8C0F803E40F42D
:100360008EEF93E00E946602C81302C0C09366003D
:1003700086EF93E00E946602C82F8F3C8CF0823398
:100380007CF487EF93E00E946602C81309C08C2FAB
:10039000CC0F990B88539F4F90934D0180934C0144
:1003A0008091680082608093680080916C00806218
:1003B00080936C00809168008160809368008091D8
:1003C0006B00806180936B002C98D3E0D4B985B129
:1003D0008C7F85B978941092C1001092C50080E19D
:1003E0008093C40012E01093C00088E18093C100A4
:1003F000C6E0C093C2008CEF93E00E946602873F84
:10040000E1F140F48D3BB1F18D3DD1F18D3A39F4FC
:1004100084E02DC08E3F51F1C0F58D3F99F16FEF13
:100420008CEF93E00E946E0280914B01873021F4A3
:1004300080E091E00E945A0085E191E00E945A001C
:1004400090E080E022E330E04091C00047FD24C00E
:100450000196A89581344FE1940724F02150310989
:1004600090E080E02115310579F7E6CF81E08093B7
:100470004B01D5CF10934B01D2CFD0934B01CFCFAF
:1004800085E0F5CFC0934B01CACF87E0F0CF8091D4
:10049000C6000E94530014C08091C6008F7D823533
:1004A00059F682E191E00E945A008CE191E00E94AD
:1004B0005A008FE30E94530082E191E00E945A00AB
:1004C0008091C00087FDE3CFA895FACFF999FECFC0
:1004D00092BD81BDF89A992780B50895262FF99984
:1004E000FECF1FBA92BD81BD20BD0FB6F894FA9A17
:0C04F000F99A0FBE01960895F894FFCF12
:1004FC0050726F6772616D2072657374617274658E
:10050C00642E0D0A00523F20202020000D0A457851
:10051C00706C6F72696E6720746865206F7065729D
:10052C006174696F6E206F66207468652055534145
:06053C0052540D0A0000FC
:00000001FF
