:100000000C9435000C945D000C945D000C94770208
:100010000C9401020C945D000C945D000C945D0046
:100020000C945D000C945D000C945D000C945D00DC
:100030000C945D000C945D000C945D000C945D00CC
:100040000C945D000C945D000C94CF010C94A901FC
:100050000C945D000C945D000C945D000C945D00AC
:100060000C945D000C945D00120311241FBECFEFB1
:10007000D8E0DEBFCDBF11E0A0E0B1E0E0E7F8E0FE
:1000800002C005900D92A832B107D9F721E0A8E28D
:10009000B1E001C01D92AD3CB207E1F710E0C5E34D
:1000A000D0E004C02197FE010E943004C433D10780
:1000B000C9F70E943F030C9436040C94000086E0BC
:1000C00090E022EB37E02093B2003093B100B89B70
:1000D000FECFB89A1092B100A8950197A1F70895A4
:1000E000AF92BF92CF92DF92EF92FF920F931F9346
:1000F000CF93DF936C017B018B01040F151FEB0184
:100100005E01AE18BF08C017D10759F06991D6013A
:10011000ED91FC910190F081E02DC6010995892BAC
:1001200079F7C501DF91CF911F910F91FF90EF906B
:10013000DF90CF90BF90AF900895FC01538D448D18
:10014000252F30E0842F90E0821B930B541710F082
:10015000CF96089501970895FC01918D828D98178F
:1001600061F0A28DAE0FBF2FB11D5D968C91928D67
:100170009F5F9F73928F90E008958FEF9FEF089598
:10018000FC01918D828D981731F0828DE80FF11D61
:10019000858D90E008958FEF9FEF0895FC01918D7C
:1001A000228D892F90E0805C9F4F821B91098F7375
:1001B00099270895FC01A48DA80FB92FB11DA35A4A
:1001C000BF4F2C91848D90E001968F739927848F77
:1001D000A689B7892C93A089B1898C91837080649A
:1001E0008C93938D848D981306C00288F389E02D3B
:1001F00080818F7D80830895EF92FF920F931F93EC
:10020000CF93DF93EC0181E0888F9B8D8C8D9813C9
:100210001AC0E889F989808185FF15C09FB7F894D5
:10022000EE89FF896083E889F98980818370806421
:1002300080839FBF81E090E0DF91CF911F910F916C
:10024000FF90EF900895F62E0B8D10E00F5F1F4F7B
:100250000F731127E02E8C8D8E110CC00FB607FC8A
:10026000FACFE889F989808185FFF5CFCE010E9418
:10027000DA00F1CFEB8DEC0FFD2FF11DE35AFF4FAC
:10028000F0829FB7F8940B8FEA89FB8980818062A6
:10029000CFCFCF93DF93EC01888D8823B9F0AA8963
:1002A000BB89E889F9898C9185FD03C0808186FD31
:1002B0000DC00FB607FCF7CF8C9185FFF2CF808180
:1002C00085FFEDCFCE010E94DA00E9CFDF91CF911B
:1002D000089510922A0181E080932B0180916B0098
:1002E000806180936B0080912A01811102C0A895E2
:1002F000FACF0895EF92FF920F931F93CF93DF935E
:10030000E82E092FF62E172FC8E6D0E088818D7FC2
:10031000888381E680932C010E946901E0922C0180
:100320000E946901F0922C010E946901A895009336
:100330002C010E94690110932C010E94690188819F
:1003400082608883DF91CF911F910F91FF90EF9092
:1003500008951F920F920FB60F9211242F933F937F
:100360004F935F936F937F938F939F93AF93BF93BD
:10037000EF93FF9380E391E00E94DA00FF91EF9109
:10038000BF91AF919F918F917F916F915F914F91AD
:100390003F912F910F900FBE0F901F9018951F92B5
:1003A0000F920FB60F9211242F938F939F93EF9379
:1003B000FF93E0914001F09141018081E09146017D
:1003C000F091470182FD1BC09081809149018F5FB0
:1003D0008F7320914A01821741F0E0914901F0E0CA
:1003E000E05DFE4F958F80934901FF91EF919F91C2
:1003F0008F912F910F900FBE0F901F9018958081B5
:10040000F4CF1F920F920FB60F9211242F933F93A8
:100410004F935F936F937F938F939F93AF93BF930C
:10042000EF93FF93359952C08FE79BEB0197F1F75C
:1004300000C00000A895EFE7FBEB3197F1F700C093
:100440000000A895359942C086E190E0EFE3FCE911
:100450003197F1F700C00000A8950197B9F7359BD7
:100460001FC08CEF93E00E941A04682F6B7F8CEF03
:1004700093E00E9422048CEF93E00E941A04682FFC
:100480006F7B8CEF93E00E94220488E199E00FB625
:10049000F894A895809360000FBE90936000FFCF02
:1004A000299A289A86E190E0EFE3FCE93197F1F789
:1004B00000C00000A8950197B9F73599DCCF789472
:1004C00087E480932C010E946901D5CFFF91EF91C1
:1004D000BF91AF919F918F917F916F915F914F915C
:1004E0003F912F910F900FBE0F901F9018951F9264
:1004F0000F920FB60F9211242F933F934F938F9328
:100500009F931C9983C080916B008F7E80936B00BA
:1005100080912B01813009F047C016BC17BC82E0E6
:1005200085BD80912E0190912F0197FD01969595A3
:10053000879587BDA99BFECF8FEF85BB2C9A87B58A
:1005400090912E01890F87BDA99BFECF8FEF85BBB0
:10055000249A87B590912E01890F87BDA99BFECF64
:100560008FEF85BB27E030E04FEF80912C01082E04
:10057000000C990B022E02C0959587950A94E2F71C
:1005800080FF4EC02C9A87B590912E01890F87BDB0
:10059000A99BFECF45BB2150310938F724982C98F0
:1005A00081E080932A0115BC80912B01823071F586
:1005B00016BC17BC85BD80912E0190912F0197FD2F
:1005C00001969595879587BDA99BFECF8FEF85BB3B
:1005D00088E090E04FEF27B530912E01230F27BD23
:1005E000A99BFECF45BB20912901220F330B2093FD
:1005F00029011C9B05C0209129012160209329011C
:10060000019749F715BC81E0809328019F918F9154
:100610004F913F912F910F900FBE0F901F90189503
:100620002C98B1CFE0E3F1E01382128288EE93E0E0
:10063000A0E0B0E084839583A683B78384E091E053
:100640009183808385EC90E09587848784EC90E0AB
:100650009787868780EC90E0918B808B81EC90E08F
:10066000938B828B82EC90E0958B848B86EC90E070
:10067000978B868B118E128E138E148E0895A895EB
:1006800084B7877F84BF8091600088618093600019
:100690001092600080917C00806480937C0085B71C
:1006A0008F7E85BF14B817B81AB88FEF85B988B98F
:1006B0008BB98FEF93E00E941A04C82F80EF8C0F44
:1006C000803E40F48EEF93E00E941A04C81302C0EB
:1006D000C093660086EF93E00E941A04C82F8F3CF7
:1006E0008CF082337CF487EF93E00E941A04C813E5
:1006F00009C08C2FCC0F990B88539F4F90932F01DB
:1007000080932E01809168008260809368008091C0
:100710006C00806280936C0080916800816080939F
:10072000680080916B00806180936B002C98D3E00F
:10073000D4B985B18C7F85B978941092C10010929C
:10074000C50080E18093C40012E01093C00088E1EE
:100750008093C100C6E0C093C2008CEF93E00E947A
:100760001A04873F09F45CC050F48D3B09F455C06E
:100770008D3D09F458C08D3A51F484E04BC08E3F52
:1007800009F447C008F054C08D3F09F44EC06FEF24
:100790008CEF93E00E94220480912D01873041F478
:1007A00044E150E062E171E080E391E00E9470007A
:1007B00088E199E00FB6F894A895809360000FBE89
:1007C00090936000D0E0C0E001E010E0C8010C2E82
:1007D00002C0880F991F0A94E2F7BC010E947A01B7
:1007E0000E945F002196C031D10581F7CEE0D0E0B4
:1007F00001E010E0C8010C2E02C0880F991F0A9476
:10080000E2F7BC010E947A010E945F00219791F7F4
:10081000FFCF81E080932D01BACF10932D01B7CF88
:10082000D0932D01B4CF85E0F5CFC0932D01AFCF8C
:1008300087E0F0CFF999FECF92BD81BDF89A992754
:1008400080B50895262FF999FECF1FBA92BD81BDBC
:1008500020BD0FB6F894FA9AF99A0FBE0196089542
:10086000EE0FFF1F0590F491E02D0994F894FFCF4F
:1008700000000000FC0070009D004901CE00AC00AB
:10088000C0000D0A50726F6772616D2072657374DB
:0808900061727465642E000022
:00000001FF
