:020000040000FA
:100000000C9434000C9451000C9451000C942C016D
:100010000C94C9000C9451000C9451000C945100A4
:100020000C9451000C9451000C9451000C9451000C
:100030000C9451000C9451000C9451000C945100FC
:100040000C9451000C9451000C94AC000C94510091
:100050000C9451000C9451000C9451000C945100DC
:100060000C9451000C94510011241FBECFEFD8E026
:10007000DEBFCDBF11E0A0E0B1E0E0E5F6E002C0F8
:1000800005900D92AE31B107D9F721E0AEE1B1E0B4
:1000900001C01D92A832B207E1F70E94C7010C947B
:1000A00026030C9400009091C00095FFFCCF809334
:1000B000C60008950F931F93CF93DF93EC018C013B
:1000C00008531F4F8991882329F00E945300C017BD
:1000D000D107C1F7DF91CF911F910F910895109231
:1000E000200181E08093210180916B0080618093E9
:1000F0006B00809120018823E1F30895EF92FF9235
:100100000F931F93CF93DF93E82E092FF62E172F0F
:10011000C8E6D0E088818D7F888381E680932201C4
:100120000E946F00E09222010E946F00F092220173
:100130000E946F00009322010E946F001093220121
:100140000E946F00888182608883DF91CF911F9128
:100150000F91FF90EF9008951F920F920FB60F929C
:1001600011248F939F93EF93FF93E1ECF0E0808154
:100170008F77808381E090E0909327018093260120
:10018000FF91EF919F918F910F900FBE0F901F9055
:1001900018951F920F920FB60F9211242F933F9331
:1001A0004F935F936F937F938F939F93AF93BF937F
:1001B000EF93FF9335993FC02FE788E391E02150FB
:1001C00080409040E1F700C00000359934C02FE72F
:1001D0008CEF9AE0215080409040E1F700C0000091
:1001E000359B15C08CEF93E00E941003682F6D7F44
:1001F0008CEF93E00E94180388E199E00FB6F89421
:10020000A895809360000FBE90936000FFCF299A5D
:10021000289A2FEF84E39CE0215080409040E1F742
:1002200000C000003599E8CF789487E480932201DC
:100230000E946F00E1CFFF91EF91BF91AF919F912D
:100240008F917F916F915F914F913F912F910F907F
:100250000FBE0F901F9018951F920F920FB60F921E
:1002600011242F933F934F938F939F931C9983C097
:1002700080916B008F7E80936B0080912101813093
:1002800009F047C016BC17BC82E085BD80912401EF
:100290009091250197FD01969595879587BDA99B1E
:1002A000FECF8FEF85BB2C9A87B590912401890FE3
:1002B00087BDA99BFECF8FEF85BB249A87B5909110
:1002C0002401890F87BDA99BFECF8FEF85BB27E057
:1002D00030E04FEF80912201082E000C990B022E86
:1002E00002C0959587950A94E2F780FF4EC02C9A3C
:1002F00087B590912401890F87BDA99BFECF45BB8F
:100300002150310938F724982C9881E080932001FE
:1003100015BC80912101823071F516BC17BC85BDDA
:10032000809124019091250197FD019695958795DF
:1003300087BDA99BFECF8FEF85BB88E090E04FEF94
:1003400027B530912401230F27BDA99BFECF45BBC4
:1003500020911F01220F330B20931F011C9B05C00E
:1003600020911F01216020931F01019749F715BCBF
:1003700081E080931E019F918F914F913F912F912A
:100380000F900FBE0F901F9018952C98B1CFA89585
:1003900084B7877F84BF809160008861809360000C
:1003A0001092600080917C00806480937C0085B70F
:1003B0008F7E85BF14B817B81AB88FEF85B988B982
:1003C0008BB98FEF93E00E941003C82F80EF8C0F42
:1003D000803E40F48EEF93E00E941003C81302C0E9
:1003E000C093660086EF93E00E941003C82F8F3CF5
:1003F0008CF082337CF487EF93E00E941003C813E3
:1004000009C08C2FCC0F990B88539F4F90932501D7
:1004100080932401809168008260809368008091BD
:100420006C00806280936C00809168008160809392
:10043000680080916B00806180936B002C9884B180
:10044000836084B929982898789480E091E00E948C
:100450005A0090E080E02AEF30E04091C00047FD74
:100460008CC0019681344FE1940724F0215031096A
:1004700090E080E02115310581F7E7CF01968134C6
:100480002FE192071CF126013701440C551C661C14
:10049000771C75016401F694E794D794C794B6016C
:1004A000C2010E947E00812C20E8922EA12CB12C4A
:1004B00041E0C416D104E104F10421F046015701E2
:1004C000730162010150110990E080E001151105EE
:1004D00009F081C08FE30E94530079C06A3009F4AB
:1004E00090C0CE010E941803CE010E941003882301
:1004F00021F00E94530021976AC088E091E00E9499
:100500005A00F9CFC23571F508EE13E089EE93E099
:100510000E941003C82F8AEE93E00E9410032C2F34
:1005200030E0322F2227820F932F911D80179107E1
:10053000ACF4C8010E94100301501109882319F07E
:100540000E945300F6CF8091C00087FFFCCF8091BE
:10055000C60088E091E00E945A00D8CF8BE091E07D
:100560000E945A0088E199E00FB6F894A89580930C
:1005700060000FBE90936000FFCFC091C600C09393
:100580002301C23519F0C23709F05FCF88E091E04E
:100590000E945A00C23709F0B5CF8091C10080682F
:1005A0008093C10060E070E881E090E00E947E00EE
:1005B00087E091E00E945A00C12CD12C7601C394AF
:1005C000812C60E8962EA12CB12CC8EED3E090E0EF
:1005D00080E004EF11E020912601309127012130C5
:1005E000310509F04BCF6091C6008091C100806851
:1005F0008093C10010922701109226016D3009F0FE
:100600006DCF6D2F89EE93E00E9418036C2F8AEE58
:1006100093E00E9418038FE30E94530060E061CFD3
:10062000F999FECF92BD81BDF89A992780B50895BA
:10063000262FF999FECF1FBA92BD81BD20BD0FB6FE
:10064000F894FA9AF99A0FBE01960895F894FFCF9C
:10065000523F20202020003F0D0A004E6F206D6F7A
:0E066000726520737472696E67730D0A000074
:107E0000112484B714BE81FFF0D085E080938100F7
:107E100082E08093C00088E18093C10086E0809377
:107E2000C20080E18093C4008EE0C9D0259A86E02C
:107E300020E33CEF91E0309385002093840096BBD3
:107E4000B09BFECF1D9AA8958150A9F7CC24DD24C4
:107E500088248394B5E0AB2EA1E19A2EF3E0BF2EE7
:107E6000A2D0813461F49FD0082FAFD0023811F036
:107E7000013811F484E001C083E08DD089C08234E0
:107E800011F484E103C0853419F485E0A6D080C0E4
:107E9000853579F488D0E82EFF2485D0082F10E0AE
:107EA000102F00270E291F29000F111F8ED06801E7
:107EB0006FC0863521F484E090D080E0DECF843638
:107EC00009F040C070D06FD0082F6DD080E0C81688
:107ED00080E7D80618F4F601B7BEE895C0E0D1E017
:107EE00062D089930C17E1F7F0E0CF16F0E7DF06D8
:107EF00018F0F601B7BEE89568D007B600FCFDCFD4
:107F0000A601A0E0B1E02C9130E011968C91119780
:107F100090E0982F8827822B932B1296FA010C0160
:107F200087BEE89511244E5F5F4FF1E0A038BF0790
:107F300051F7F601A7BEE89507B600FCFDCF97BE46
:107F4000E89526C08437B1F42ED02DD0F82E2BD052
:107F50003CD0F601EF2C8F010F5F1F4F84911BD097
:107F6000EA94F801C1F70894C11CD11CFA94CF0C13
:107F7000D11C0EC0853739F428D08EE10CD085E9AC
:107F80000AD08FE07ACF813511F488E018D01DD067
:107F900080E101D065CF982F8091C00085FFFCCF94
:107FA0009093C60008958091C00087FFFCCF809118
:107FB000C00084FD01C0A8958091C6000895E0E648
:107FC000F0E098E1908380830895EDDF803219F02E
:107FD00088E0F5DFFFCF84E1DECF1F93182FE3DFCA
:107FE0001150E9F7F2DF1F91089580E0E8DFEE27F6
:047FF000FF270994CA
:027FFE00040479
:00000001FF
